{
  "contractName": "GLBNFT",
  "abi": [
    {
      "inputs": [
        {
          "internalType": "address",
          "name": "initialOwner",
          "type": "address"
        }
      ],
      "stateMutability": "nonpayable",
      "type": "constructor"
    },
    {
      "anonymous": false,
      "inputs": [
        {
          "indexed": true,
          "internalType": "address",
          "name": "owner",
          "type": "address"
        },
        {
          "indexed": true,
          "internalType": "address",
          "name": "approved",
          "type": "address"
        },
        {
          "indexed": true,
          "internalType": "uint256",
          "name": "tokenId",
          "type": "uint256"
        }
      ],
      "name": "Approval",
      "type": "event"
    },
    {
      "anonymous": false,
      "inputs": [
        {
          "indexed": true,
          "internalType": "address",
          "name": "owner",
          "type": "address"
        },
        {
          "indexed": true,
          "internalType": "address",
          "name": "operator",
          "type": "address"
        },
        {
          "indexed": false,
          "internalType": "bool",
          "name": "approved",
          "type": "bool"
        }
      ],
      "name": "ApprovalForAll",
      "type": "event"
    },
    {
      "anonymous": false,
      "inputs": [
        {
          "indexed": false,
          "internalType": "uint256",
          "name": "_fromTokenId",
          "type": "uint256"
        },
        {
          "indexed": false,
          "internalType": "uint256",
          "name": "_toTokenId",
          "type": "uint256"
        }
      ],
      "name": "BatchMetadataUpdate",
      "type": "event"
    },
    {
      "anonymous": false,
      "inputs": [
        {
          "indexed": false,
          "internalType": "uint256",
          "name": "_tokenId",
          "type": "uint256"
        }
      ],
      "name": "MetadataUpdate",
      "type": "event"
    },
    {
      "anonymous": false,
      "inputs": [
        {
          "indexed": true,
          "internalType": "address",
          "name": "previousOwner",
          "type": "address"
        },
        {
          "indexed": true,
          "internalType": "address",
          "name": "newOwner",
          "type": "address"
        }
      ],
      "name": "OwnershipTransferred",
      "type": "event"
    },
    {
      "anonymous": false,
      "inputs": [
        {
          "indexed": true,
          "internalType": "bytes32",
          "name": "role",
          "type": "bytes32"
        },
        {
          "indexed": true,
          "internalType": "bytes32",
          "name": "previousAdminRole",
          "type": "bytes32"
        },
        {
          "indexed": true,
          "internalType": "bytes32",
          "name": "newAdminRole",
          "type": "bytes32"
        }
      ],
      "name": "RoleAdminChanged",
      "type": "event"
    },
    {
      "anonymous": false,
      "inputs": [
        {
          "indexed": true,
          "internalType": "bytes32",
          "name": "role",
          "type": "bytes32"
        },
        {
          "indexed": true,
          "internalType": "address",
          "name": "account",
          "type": "address"
        },
        {
          "indexed": true,
          "internalType": "address",
          "name": "sender",
          "type": "address"
        }
      ],
      "name": "RoleGranted",
      "type": "event"
    },
    {
      "anonymous": false,
      "inputs": [
        {
          "indexed": true,
          "internalType": "bytes32",
          "name": "role",
          "type": "bytes32"
        },
        {
          "indexed": true,
          "internalType": "address",
          "name": "account",
          "type": "address"
        },
        {
          "indexed": true,
          "internalType": "address",
          "name": "sender",
          "type": "address"
        }
      ],
      "name": "RoleRevoked",
      "type": "event"
    },
    {
      "anonymous": false,
      "inputs": [
        {
          "indexed": false,
          "internalType": "address",
          "name": "to",
          "type": "address"
        },
        {
          "indexed": false,
          "internalType": "uint256",
          "name": "tokenId",
          "type": "uint256"
        },
        {
          "indexed": false,
          "internalType": "string",
          "name": "uri",
          "type": "string"
        }
      ],
      "name": "TokenMinted",
      "type": "event"
    },
    {
      "anonymous": false,
      "inputs": [
        {
          "indexed": true,
          "internalType": "address",
          "name": "from",
          "type": "address"
        },
        {
          "indexed": true,
          "internalType": "address",
          "name": "to",
          "type": "address"
        },
        {
          "indexed": true,
          "internalType": "uint256",
          "name": "tokenId",
          "type": "uint256"
        }
      ],
      "name": "Transfer",
      "type": "event"
    },
    {
      "inputs": [],
      "name": "DEFAULT_ADMIN_ROLE",
      "outputs": [
        {
          "internalType": "bytes32",
          "name": "",
          "type": "bytes32"
        }
      ],
      "stateMutability": "view",
      "type": "function",
      "constant": true
    },
    {
      "inputs": [],
      "name": "MINTER_ROLE",
      "outputs": [
        {
          "internalType": "bytes32",
          "name": "",
          "type": "bytes32"
        }
      ],
      "stateMutability": "view",
      "type": "function",
      "constant": true
    },
    {
      "inputs": [
        {
          "internalType": "address",
          "name": "to",
          "type": "address"
        },
        {
          "internalType": "uint256",
          "name": "tokenId",
          "type": "uint256"
        }
      ],
      "name": "approve",
      "outputs": [],
      "stateMutability": "nonpayable",
      "type": "function"
    },
    {
      "inputs": [
        {
          "internalType": "address",
          "name": "owner",
          "type": "address"
        }
      ],
      "name": "balanceOf",
      "outputs": [
        {
          "internalType": "uint256",
          "name": "",
          "type": "uint256"
        }
      ],
      "stateMutability": "view",
      "type": "function",
      "constant": true
    },
    {
      "inputs": [
        {
          "internalType": "uint256",
          "name": "tokenId",
          "type": "uint256"
        }
      ],
      "name": "getApproved",
      "outputs": [
        {
          "internalType": "address",
          "name": "",
          "type": "address"
        }
      ],
      "stateMutability": "view",
      "type": "function",
      "constant": true
    },
    {
      "inputs": [
        {
          "internalType": "bytes32",
          "name": "role",
          "type": "bytes32"
        }
      ],
      "name": "getRoleAdmin",
      "outputs": [
        {
          "internalType": "bytes32",
          "name": "",
          "type": "bytes32"
        }
      ],
      "stateMutability": "view",
      "type": "function",
      "constant": true
    },
    {
      "inputs": [
        {
          "internalType": "bytes32",
          "name": "role",
          "type": "bytes32"
        },
        {
          "internalType": "address",
          "name": "account",
          "type": "address"
        }
      ],
      "name": "grantRole",
      "outputs": [],
      "stateMutability": "nonpayable",
      "type": "function"
    },
    {
      "inputs": [
        {
          "internalType": "bytes32",
          "name": "role",
          "type": "bytes32"
        },
        {
          "internalType": "address",
          "name": "account",
          "type": "address"
        }
      ],
      "name": "hasRole",
      "outputs": [
        {
          "internalType": "bool",
          "name": "",
          "type": "bool"
        }
      ],
      "stateMutability": "view",
      "type": "function",
      "constant": true
    },
    {
      "inputs": [
        {
          "internalType": "address",
          "name": "owner",
          "type": "address"
        },
        {
          "internalType": "address",
          "name": "operator",
          "type": "address"
        }
      ],
      "name": "isApprovedForAll",
      "outputs": [
        {
          "internalType": "bool",
          "name": "",
          "type": "bool"
        }
      ],
      "stateMutability": "view",
      "type": "function",
      "constant": true
    },
    {
      "inputs": [],
      "name": "name",
      "outputs": [
        {
          "internalType": "string",
          "name": "",
          "type": "string"
        }
      ],
      "stateMutability": "view",
      "type": "function",
      "constant": true
    },
    {
      "inputs": [],
      "name": "owner",
      "outputs": [
        {
          "internalType": "address",
          "name": "",
          "type": "address"
        }
      ],
      "stateMutability": "view",
      "type": "function",
      "constant": true
    },
    {
      "inputs": [
        {
          "internalType": "uint256",
          "name": "tokenId",
          "type": "uint256"
        }
      ],
      "name": "ownerOf",
      "outputs": [
        {
          "internalType": "address",
          "name": "",
          "type": "address"
        }
      ],
      "stateMutability": "view",
      "type": "function",
      "constant": true
    },
    {
      "inputs": [],
      "name": "renounceOwnership",
      "outputs": [],
      "stateMutability": "nonpayable",
      "type": "function"
    },
    {
      "inputs": [
        {
          "internalType": "bytes32",
          "name": "role",
          "type": "bytes32"
        },
        {
          "internalType": "address",
          "name": "account",
          "type": "address"
        }
      ],
      "name": "renounceRole",
      "outputs": [],
      "stateMutability": "nonpayable",
      "type": "function"
    },
    {
      "inputs": [
        {
          "internalType": "bytes32",
          "name": "role",
          "type": "bytes32"
        },
        {
          "internalType": "address",
          "name": "account",
          "type": "address"
        }
      ],
      "name": "revokeRole",
      "outputs": [],
      "stateMutability": "nonpayable",
      "type": "function"
    },
    {
      "inputs": [
        {
          "internalType": "address",
          "name": "from",
          "type": "address"
        },
        {
          "internalType": "address",
          "name": "to",
          "type": "address"
        },
        {
          "internalType": "uint256",
          "name": "tokenId",
          "type": "uint256"
        }
      ],
      "name": "safeTransferFrom",
      "outputs": [],
      "stateMutability": "nonpayable",
      "type": "function"
    },
    {
      "inputs": [
        {
          "internalType": "address",
          "name": "from",
          "type": "address"
        },
        {
          "internalType": "address",
          "name": "to",
          "type": "address"
        },
        {
          "internalType": "uint256",
          "name": "tokenId",
          "type": "uint256"
        },
        {
          "internalType": "bytes",
          "name": "data",
          "type": "bytes"
        }
      ],
      "name": "safeTransferFrom",
      "outputs": [],
      "stateMutability": "nonpayable",
      "type": "function"
    },
    {
      "inputs": [
        {
          "internalType": "address",
          "name": "operator",
          "type": "address"
        },
        {
          "internalType": "bool",
          "name": "approved",
          "type": "bool"
        }
      ],
      "name": "setApprovalForAll",
      "outputs": [],
      "stateMutability": "nonpayable",
      "type": "function"
    },
    {
      "inputs": [],
      "name": "symbol",
      "outputs": [
        {
          "internalType": "string",
          "name": "",
          "type": "string"
        }
      ],
      "stateMutability": "view",
      "type": "function",
      "constant": true
    },
    {
      "inputs": [
        {
          "internalType": "uint256",
          "name": "tokenId",
          "type": "uint256"
        }
      ],
      "name": "tokenURI",
      "outputs": [
        {
          "internalType": "string",
          "name": "",
          "type": "string"
        }
      ],
      "stateMutability": "view",
      "type": "function",
      "constant": true
    },
    {
      "inputs": [
        {
          "internalType": "address",
          "name": "from",
          "type": "address"
        },
        {
          "internalType": "address",
          "name": "to",
          "type": "address"
        },
        {
          "internalType": "uint256",
          "name": "tokenId",
          "type": "uint256"
        }
      ],
      "name": "transferFrom",
      "outputs": [],
      "stateMutability": "nonpayable",
      "type": "function"
    },
    {
      "inputs": [
        {
          "internalType": "address",
          "name": "newOwner",
          "type": "address"
        }
      ],
      "name": "transferOwnership",
      "outputs": [],
      "stateMutability": "nonpayable",
      "type": "function"
    },
    {
      "inputs": [
        {
          "internalType": "bytes4",
          "name": "interfaceId",
          "type": "bytes4"
        }
      ],
      "name": "supportsInterface",
      "outputs": [
        {
          "internalType": "bool",
          "name": "",
          "type": "bool"
        }
      ],
      "stateMutability": "view",
      "type": "function",
      "constant": true
    },
    {
      "inputs": [
        {
          "internalType": "address",
          "name": "to",
          "type": "address"
        },
        {
          "internalType": "string",
          "name": "uri",
          "type": "string"
        }
      ],
      "name": "safeMint",
      "outputs": [
        {
          "internalType": "uint256",
          "name": "",
          "type": "uint256"
        }
      ],
      "stateMutability": "nonpayable",
      "type": "function"
    },
    {
      "inputs": [
        {
          "internalType": "address",
          "name": "account",
          "type": "address"
        }
      ],
      "name": "addMinter",
      "outputs": [],
      "stateMutability": "nonpayable",
      "type": "function"
    },
    {
      "inputs": [
        {
          "internalType": "address",
          "name": "account",
          "type": "address"
        }
      ],
      "name": "removeMinter",
      "outputs": [],
      "stateMutability": "nonpayable",
      "type": "function"
    }
  ],
  "bytecode": "0x60806040523480156200001157600080fd5b506040516200484e3803806200484e833981810160405281019062000037919062000544565b6040518060400160405280600681526020017f474c424e465400000000000000000000000000000000000000000000000000008152506040518060400160405280600381526020017f474c4200000000000000000000000000000000000000000000000000000000008152508160009081620000b49190620007f0565b508060019081620000c69190620007f0565b505050620000e9620000dd6200014860201b60201c565b6200015060201b60201c565b620000fe6000801b336200021660201b60201c565b620001307f9f2df0fed2c77648de5860a4cc508cd0818c85b8b8a1ab4ceeef8d981c8956a6336200021660201b60201c565b62000141816200022c60201b60201c565b50620009f2565b600033905090565b6000600760009054906101000a900473ffffffffffffffffffffffffffffffffffffffff16905081600760006101000a81548173ffffffffffffffffffffffffffffffffffffffff021916908373ffffffffffffffffffffffffffffffffffffffff1602179055508173ffffffffffffffffffffffffffffffffffffffff168173ffffffffffffffffffffffffffffffffffffffff167f8be0079c531659141344cd1fd0a4f28419497f9722a3daafe3b4186f6b6457e060405160405180910390a35050565b620002288282620002c260201b60201c565b5050565b6200023c620003b460201b60201c565b600073ffffffffffffffffffffffffffffffffffffffff168173ffffffffffffffffffffffffffffffffffffffff1603620002ae576040517f08c379a0000000000000000000000000000000000000000000000000000000008152600401620002a5906200095e565b60405180910390fd5b620002bf816200015060201b60201c565b50565b620002d482826200044560201b60201c565b620003b05760016008600084815260200190815260200160002060000160008373ffffffffffffffffffffffffffffffffffffffff1673ffffffffffffffffffffffffffffffffffffffff16815260200190815260200160002060006101000a81548160ff021916908315150217905550620003556200014860201b60201c565b73ffffffffffffffffffffffffffffffffffffffff168173ffffffffffffffffffffffffffffffffffffffff16837f2f8788117e7eff1d82e926ec794901d17c78024a50270940304540a733656f0d60405160405180910390a45b5050565b620003c46200014860201b60201c565b73ffffffffffffffffffffffffffffffffffffffff16620003ea620004b060201b60201c565b73ffffffffffffffffffffffffffffffffffffffff161462000443576040517f08c379a00000000000000000000000000000000000000000000000000000000081526004016200043a90620009d0565b60405180910390fd5b565b60006008600084815260200190815260200160002060000160008373ffffffffffffffffffffffffffffffffffffffff1673ffffffffffffffffffffffffffffffffffffffff16815260200190815260200160002060009054906101000a900460ff16905092915050565b6000600760009054906101000a900473ffffffffffffffffffffffffffffffffffffffff16905090565b600080fd5b600073ffffffffffffffffffffffffffffffffffffffff82169050919050565b60006200050c82620004df565b9050919050565b6200051e81620004ff565b81146200052a57600080fd5b50565b6000815190506200053e8162000513565b92915050565b6000602082840312156200055d576200055c620004da565b5b60006200056d848285016200052d565b91505092915050565b600081519050919050565b7f4e487b7100000000000000000000000000000000000000000000000000000000600052604160045260246000fd5b7f4e487b7100000000000000000000000000000000000000000000000000000000600052602260045260246000fd5b60006002820490506001821680620005f857607f821691505b6020821081036200060e576200060d620005b0565b5b50919050565b60008190508160005260206000209050919050565b60006020601f8301049050919050565b600082821b905092915050565b600060088302620006787fffffffffffffffffffffffffffffffffffffffffffffffffffffffffffffffff8262000639565b62000684868362000639565b95508019841693508086168417925050509392505050565b6000819050919050565b6000819050919050565b6000620006d1620006cb620006c5846200069c565b620006a6565b6200069c565b9050919050565b6000819050919050565b620006ed83620006b0565b62000705620006fc82620006d8565b84845462000646565b825550505050565b600090565b6200071c6200070d565b62000729818484620006e2565b505050565b5b8181101562000751576200074560008262000712565b6001810190506200072f565b5050565b601f821115620007a0576200076a8162000614565b620007758462000629565b8101602085101562000785578190505b6200079d620007948562000629565b8301826200072e565b50505b505050565b600082821c905092915050565b6000620007c560001984600802620007a5565b1980831691505092915050565b6000620007e08383620007b2565b9150826002028217905092915050565b620007fb8262000576565b67ffffffffffffffff81111562000817576200081662000581565b5b620008238254620005df565b6200083082828562000755565b600060209050601f83116001811462000868576000841562000853578287015190505b6200085f8582620007d2565b865550620008cf565b601f198416620008788662000614565b60005b82811015620008a2578489015182556001820191506020850194506020810190506200087b565b86831015620008c25784890151620008be601f891682620007b2565b8355505b6001600288020188555050505b505050505050565b600082825260208201905092915050565b7f4f776e61626c653a206e6577206f776e657220697320746865207a65726f206160008201527f6464726573730000000000000000000000000000000000000000000000000000602082015250565b600062000946602683620008d7565b91506200095382620008e8565b604082019050919050565b60006020820190508181036000830152620009798162000937565b9050919050565b7f4f776e61626c653a2063616c6c6572206973206e6f7420746865206f776e6572600082015250565b6000620009b8602083620008d7565b9150620009c58262000980565b602082019050919050565b60006020820190508181036000830152620009eb81620009a9565b9050919050565b613e4c8062000a026000396000f3fe608060405234801561001057600080fd5b506004361061018e5760003560e01c80638da5cb5b116100de578063b88d4fde11610097578063d539139311610071578063d539139314610491578063d547741f146104af578063e985e9c5146104cb578063f2fde38b146104fb5761018e565b8063b88d4fde14610415578063c87b56dd14610431578063d204c45e146104615761018e565b80638da5cb5b1461035357806391d148541461037157806395d89b41146103a1578063983b2d56146103bf578063a217fddf146103db578063a22cb465146103f95761018e565b80632f2ff15d1161014b57806342842e0e1161012557806342842e0e146102cd5780636352211e146102e957806370a0823114610319578063715018a6146103495761018e565b80632f2ff15d146102795780633092afd51461029557806336568abe146102b15761018e565b806301ffc9a71461019357806306fdde03146101c3578063081812fc146101e1578063095ea7b31461021157806323b872dd1461022d578063248a9ca314610249575b600080fd5b6101ad60048036038101906101a8919061271f565b610517565b6040516101ba9190612767565b60405180910390f35b6101cb610529565b6040516101d89190612812565b60405180910390f35b6101fb60048036038101906101f6919061286a565b6105bb565b60405161020891906128d8565b60405180910390f35b61022b6004803603810190610226919061291f565b610601565b005b6102476004803603810190610242919061295f565b610718565b005b610263600480360381019061025e91906129e8565b610778565b6040516102709190612a24565b60405180910390f35b610293600480360381019061028e9190612a3f565b610798565b005b6102af60048036038101906102aa9190612a7f565b6107b9565b005b6102cb60048036038101906102c69190612a3f565b61085d565b005b6102e760048036038101906102e2919061295f565b6108e0565b005b61030360048036038101906102fe919061286a565b610900565b60405161031091906128d8565b60405180910390f35b610333600480360381019061032e9190612a7f565b610986565b6040516103409190612abb565b60405180910390f35b610351610a3d565b005b61035b610a51565b60405161036891906128d8565b60405180910390f35b61038b60048036038101906103869190612a3f565b610a7b565b6040516103989190612767565b60405180910390f35b6103a9610ae6565b6040516103b69190612812565b60405180910390f35b6103d960048036038101906103d49190612a7f565b610b78565b005b6103e3610c1c565b6040516103f09190612a24565b60405180910390f35b610413600480360381019061040e9190612b02565b610c23565b005b61042f600480360381019061042a9190612c77565b610c39565b005b61044b6004803603810190610446919061286a565b610c9b565b6040516104589190612812565b60405180910390f35b61047b60048036038101906104769190612d9b565b610dad565b6040516104889190612abb565b60405180910390f35b610499610eb7565b6040516104a69190612a24565b60405180910390f35b6104c960048036038101906104c49190612a3f565b610edb565b005b6104e560048036038101906104e09190612df7565b610efc565b6040516104f29190612767565b60405180910390f35b61051560048036038101906105109190612a7f565b610f90565b005b600061052282611013565b9050919050565b60606000805461053890612e66565b80601f016020809104026020016040519081016040528092919081815260200182805461056490612e66565b80156105b15780601f10610586576101008083540402835291602001916105b1565b820191906000526020600020905b81548152906001019060200180831161059457829003601f168201915b5050505050905090565b60006105c68261108d565b6004600083815260200190815260200160002060009054906101000a900473ffffffffffffffffffffffffffffffffffffffff169050919050565b600061060c82610900565b90508073ffffffffffffffffffffffffffffffffffffffff168373ffffffffffffffffffffffffffffffffffffffff160361067c576040517f08c379a000000000000000000000000000000000000000000000000000000000815260040161067390612f09565b60405180910390fd5b8073ffffffffffffffffffffffffffffffffffffffff1661069b6110d8565b73ffffffffffffffffffffffffffffffffffffffff1614806106ca57506106c9816106c46110d8565b610efc565b5b610709576040517f08c379a000000000000000000000000000000000000000000000000000000000815260040161070090612f9b565b60405180910390fd5b61071383836110e0565b505050565b6107296107236110d8565b82611199565b610768576040517f08c379a000000000000000000000000000000000000000000000000000000000815260040161075f9061302d565b60405180910390fd5b61077383838361122e565b505050565b600060086000838152602001908152602001600020600101549050919050565b6107a182610778565b6107aa81611527565b6107b4838361153b565b505050565b6107c161161c565b600073ffffffffffffffffffffffffffffffffffffffff168173ffffffffffffffffffffffffffffffffffffffff1603610830576040517f08c379a000000000000000000000000000000000000000000000000000000000815260040161082790613099565b60405180910390fd5b61085a7f9f2df0fed2c77648de5860a4cc508cd0818c85b8b8a1ab4ceeef8d981c8956a682610edb565b50565b6108656110d8565b73ffffffffffffffffffffffffffffffffffffffff168173ffffffffffffffffffffffffffffffffffffffff16146108d2576040517f08c379a00000000000000000000000000000000000000000000000000000000081526004016108c99061312b565b60405180910390fd5b6108dc828261169a565b5050565b6108fb83838360405180602001604052806000815250610c39565b505050565b60008061090c8361177c565b9050600073ffffffffffffffffffffffffffffffffffffffff168173ffffffffffffffffffffffffffffffffffffffff160361097d576040517f08c379a000000000000000000000000000000000000000000000000000000000815260040161097490613197565b60405180910390fd5b80915050919050565b60008073ffffffffffffffffffffffffffffffffffffffff168273ffffffffffffffffffffffffffffffffffffffff16036109f6576040517f08c379a00000000000000000000000000000000000000000000000000000000081526004016109ed90613229565b60405180910390fd5b600360008373ffffffffffffffffffffffffffffffffffffffff1673ffffffffffffffffffffffffffffffffffffffff168152602001908152602001600020549050919050565b610a4561161c565b610a4f60006117b9565b565b6000600760009054906101000a900473ffffffffffffffffffffffffffffffffffffffff16905090565b60006008600084815260200190815260200160002060000160008373ffffffffffffffffffffffffffffffffffffffff1673ffffffffffffffffffffffffffffffffffffffff16815260200190815260200160002060009054906101000a900460ff16905092915050565b606060018054610af590612e66565b80601f0160208091040260200160405190810160405280929190818152602001828054610b2190612e66565b8015610b6e5780601f10610b4357610100808354040283529160200191610b6e565b820191906000526020600020905b815481529060010190602001808311610b5157829003601f168201915b5050505050905090565b610b8061161c565b600073ffffffffffffffffffffffffffffffffffffffff168173ffffffffffffffffffffffffffffffffffffffff1603610bef576040517f08c379a0000000000000000000000000000000000000000000000000000000008152600401610be690613099565b60405180910390fd5b610c197f9f2df0fed2c77648de5860a4cc508cd0818c85b8b8a1ab4ceeef8d981c8956a682610798565b50565b6000801b81565b610c35610c2e6110d8565b838361187f565b5050565b610c4a610c446110d8565b83611199565b610c89576040517f08c379a0000000000000000000000000000000000000000000000000000000008152600401610c809061302d565b60405180910390fd5b610c95848484846119eb565b50505050565b6060610ca68261108d565b6000600660008481526020019081526020016000208054610cc690612e66565b80601f0160208091040260200160405190810160405280929190818152602001828054610cf290612e66565b8015610d3f5780601f10610d1457610100808354040283529160200191610d3f565b820191906000526020600020905b815481529060010190602001808311610d2257829003601f168201915b505050505090506000610d50611a47565b90506000815103610d65578192505050610da8565b600082511115610d9a578082604051602001610d82929190613285565b60405160208183030381529060405292505050610da8565b610da384611a5e565b925050505b919050565b60007f9f2df0fed2c77648de5860a4cc508cd0818c85b8b8a1ab4ceeef8d981c8956a6610dd981611527565b610e037f9f2df0fed2c77648de5860a4cc508cd0818c85b8b8a1ab4ceeef8d981c8956a633610a7b565b610e42576040517f08c379a0000000000000000000000000000000000000000000000000000000008152600401610e399061331b565b60405180910390fd5b600060096000815480929190610e579061336a565b919050559050610e678582611ac6565b610e718185611ae4565b7fdf92894dc4675a7333caa5903b69cf5d8e8ec0d3f361c88207b6688e525703bb858286604051610ea4939291906133b2565b60405180910390a1809250505092915050565b7f9f2df0fed2c77648de5860a4cc508cd0818c85b8b8a1ab4ceeef8d981c8956a681565b610ee482610778565b610eed81611527565b610ef7838361169a565b505050565b6000600560008473ffffffffffffffffffffffffffffffffffffffff1673ffffffffffffffffffffffffffffffffffffffff16815260200190815260200160002060008373ffffffffffffffffffffffffffffffffffffffff1673ffffffffffffffffffffffffffffffffffffffff16815260200190815260200160002060009054906101000a900460ff16905092915050565b610f9861161c565b600073ffffffffffffffffffffffffffffffffffffffff168173ffffffffffffffffffffffffffffffffffffffff1603611007576040517f08c379a0000000000000000000000000000000000000000000000000000000008152600401610ffe90613462565b60405180910390fd5b611010816117b9565b50565b60007f7965db0b000000000000000000000000000000000000000000000000000000007bffffffffffffffffffffffffffffffffffffffffffffffffffffffff1916827bffffffffffffffffffffffffffffffffffffffffffffffffffffffff19161480611086575061108582611b88565b5b9050919050565b61109681611be9565b6110d5576040517f08c379a00000000000000000000000000000000000000000000000000000000081526004016110cc90613197565b60405180910390fd5b50565b600033905090565b816004600083815260200190815260200160002060006101000a81548173ffffffffffffffffffffffffffffffffffffffff021916908373ffffffffffffffffffffffffffffffffffffffff160217905550808273ffffffffffffffffffffffffffffffffffffffff1661115383610900565b73ffffffffffffffffffffffffffffffffffffffff167f8c5be1e5ebec7d5bd14f71427d1e84f3dd0314c0f7b2291e5b200ac8c7c3b92560405160405180910390a45050565b6000806111a583610900565b90508073ffffffffffffffffffffffffffffffffffffffff168473ffffffffffffffffffffffffffffffffffffffff1614806111e757506111e68185610efc565b5b8061122557508373ffffffffffffffffffffffffffffffffffffffff1661120d846105bb565b73ffffffffffffffffffffffffffffffffffffffff16145b91505092915050565b8273ffffffffffffffffffffffffffffffffffffffff1661124e82610900565b73ffffffffffffffffffffffffffffffffffffffff16146112a4576040517f08c379a000000000000000000000000000000000000000000000000000000000815260040161129b906134f4565b60405180910390fd5b600073ffffffffffffffffffffffffffffffffffffffff168273ffffffffffffffffffffffffffffffffffffffff1603611313576040517f08c379a000000000000000000000000000000000000000000000000000000000815260040161130a90613586565b60405180910390fd5b6113208383836001611c2a565b8273ffffffffffffffffffffffffffffffffffffffff1661134082610900565b73ffffffffffffffffffffffffffffffffffffffff1614611396576040517f08c379a000000000000000000000000000000000000000000000000000000000815260040161138d906134f4565b60405180910390fd5b6004600082815260200190815260200160002060006101000a81549073ffffffffffffffffffffffffffffffffffffffff02191690556001600360008573ffffffffffffffffffffffffffffffffffffffff1673ffffffffffffffffffffffffffffffffffffffff168152602001908152602001600020600082825403925050819055506001600360008473ffffffffffffffffffffffffffffffffffffffff1673ffffffffffffffffffffffffffffffffffffffff16815260200190815260200160002060008282540192505081905550816002600083815260200190815260200160002060006101000a81548173ffffffffffffffffffffffffffffffffffffffff021916908373ffffffffffffffffffffffffffffffffffffffff160217905550808273ffffffffffffffffffffffffffffffffffffffff168473ffffffffffffffffffffffffffffffffffffffff167fddf252ad1be2c89b69c2b068fc378daa952ba7f163c4a11628f55a4df523b3ef60405160405180910390a46115228383836001611c30565b505050565b611538816115336110d8565b611c36565b50565b6115458282610a7b565b6116185760016008600084815260200190815260200160002060000160008373ffffffffffffffffffffffffffffffffffffffff1673ffffffffffffffffffffffffffffffffffffffff16815260200190815260200160002060006101000a81548160ff0219169083151502179055506115bd6110d8565b73ffffffffffffffffffffffffffffffffffffffff168173ffffffffffffffffffffffffffffffffffffffff16837f2f8788117e7eff1d82e926ec794901d17c78024a50270940304540a733656f0d60405160405180910390a45b5050565b6116246110d8565b73ffffffffffffffffffffffffffffffffffffffff16611642610a51565b73ffffffffffffffffffffffffffffffffffffffff1614611698576040517f08c379a000000000000000000000000000000000000000000000000000000000815260040161168f906135f2565b60405180910390fd5b565b6116a48282610a7b565b156117785760006008600084815260200190815260200160002060000160008373ffffffffffffffffffffffffffffffffffffffff1673ffffffffffffffffffffffffffffffffffffffff16815260200190815260200160002060006101000a81548160ff02191690831515021790555061171d6110d8565b73ffffffffffffffffffffffffffffffffffffffff168173ffffffffffffffffffffffffffffffffffffffff16837ff6391f5c32d9c69d2a47ea670b442974b53935d1edc7fd64eb21e047a839171b60405160405180910390a45b5050565b60006002600083815260200190815260200160002060009054906101000a900473ffffffffffffffffffffffffffffffffffffffff169050919050565b6000600760009054906101000a900473ffffffffffffffffffffffffffffffffffffffff16905081600760006101000a81548173ffffffffffffffffffffffffffffffffffffffff021916908373ffffffffffffffffffffffffffffffffffffffff1602179055508173ffffffffffffffffffffffffffffffffffffffff168173ffffffffffffffffffffffffffffffffffffffff167f8be0079c531659141344cd1fd0a4f28419497f9722a3daafe3b4186f6b6457e060405160405180910390a35050565b8173ffffffffffffffffffffffffffffffffffffffff168373ffffffffffffffffffffffffffffffffffffffff16036118ed576040517f08c379a00000000000000000000000000000000000000000000000000000000081526004016118e49061365e565b60405180910390fd5b80600560008573ffffffffffffffffffffffffffffffffffffffff1673ffffffffffffffffffffffffffffffffffffffff16815260200190815260200160002060008473ffffffffffffffffffffffffffffffffffffffff1673ffffffffffffffffffffffffffffffffffffffff16815260200190815260200160002060006101000a81548160ff0219169083151502179055508173ffffffffffffffffffffffffffffffffffffffff168373ffffffffffffffffffffffffffffffffffffffff167f17307eab39ab6107e8899845ad3d59bd9653f200f220920489ca2b5937696c31836040516119de9190612767565b60405180910390a3505050565b6119f684848461122e565b611a0284848484611cbb565b611a41576040517f08c379a0000000000000000000000000000000000000000000000000000000008152600401611a38906136f0565b60405180910390fd5b50505050565b606060405180602001604052806000815250905090565b6060611a698261108d565b6000611a73611a47565b90506000815111611a935760405180602001604052806000815250611abe565b80611a9d84611e42565b604051602001611aae929190613285565b6040516020818303038152906040525b915050919050565b611ae0828260405180602001604052806000815250611f10565b5050565b611aed82611be9565b611b2c576040517f08c379a0000000000000000000000000000000000000000000000000000000008152600401611b2390613782565b60405180910390fd5b80600660008481526020019081526020016000209081611b4c919061394e565b507ff8e1a15aba9398e019f0b49df1a4fde98ee17ae345cb5f6b5e2c27f5033e8ce782604051611b7c9190612abb565b60405180910390a15050565b6000634906490660e01b7bffffffffffffffffffffffffffffffffffffffffffffffffffffffff1916827bffffffffffffffffffffffffffffffffffffffffffffffffffffffff19161480611be25750611be182611f6b565b5b9050919050565b60008073ffffffffffffffffffffffffffffffffffffffff16611c0b8361177c565b73ffffffffffffffffffffffffffffffffffffffff1614159050919050565b50505050565b50505050565b611c408282610a7b565b611cb757611c4d8161204d565b611c5b8360001c602061207a565b604051602001611c6c929190613ab8565b6040516020818303038152906040526040517f08c379a0000000000000000000000000000000000000000000000000000000008152600401611cae9190612812565b60405180910390fd5b5050565b6000611cdc8473ffffffffffffffffffffffffffffffffffffffff166122b6565b15611e35578373ffffffffffffffffffffffffffffffffffffffff1663150b7a02611d056110d8565b8786866040518563ffffffff1660e01b8152600401611d279493929190613b47565b6020604051808303816000875af1925050508015611d6357506040513d601f19601f82011682018060405250810190611d609190613ba8565b60015b611de5573d8060008114611d93576040519150601f19603f3d011682016040523d82523d6000602084013e611d98565b606091505b506000815103611ddd576040517f08c379a0000000000000000000000000000000000000000000000000000000008152600401611dd4906136f0565b60405180910390fd5b805181602001fd5b63150b7a0260e01b7bffffffffffffffffffffffffffffffffffffffffffffffffffffffff1916817bffffffffffffffffffffffffffffffffffffffffffffffffffffffff191614915050611e3a565b600190505b949350505050565b606060006001611e51846122d9565b01905060008167ffffffffffffffff811115611e7057611e6f612b4c565b5b6040519080825280601f01601f191660200182016040528015611ea25781602001600182028036833780820191505090505b509050600082602001820190505b600115611f05578080600190039150507f3031323334353637383961626364656600000000000000000000000000000000600a86061a8153600a8581611ef957611ef8613bd5565b5b04945060008503611eb0575b819350505050919050565b611f1a838361242c565b611f276000848484611cbb565b611f66576040517f08c379a0000000000000000000000000000000000000000000000000000000008152600401611f5d906136f0565b60405180910390fd5b505050565b60007f80ac58cd000000000000000000000000000000000000000000000000000000007bffffffffffffffffffffffffffffffffffffffffffffffffffffffff1916827bffffffffffffffffffffffffffffffffffffffffffffffffffffffff1916148061203657507f5b5e139f000000000000000000000000000000000000000000000000000000007bffffffffffffffffffffffffffffffffffffffffffffffffffffffff1916827bffffffffffffffffffffffffffffffffffffffffffffffffffffffff1916145b80612046575061204582612649565b5b9050919050565b60606120738273ffffffffffffffffffffffffffffffffffffffff16601460ff1661207a565b9050919050565b60606000600283600261208d9190613c04565b6120979190613c46565b67ffffffffffffffff8111156120b0576120af612b4c565b5b6040519080825280601f01601f1916602001820160405280156120e25781602001600182028036833780820191505090505b5090507f30000000000000000000000000000000000000000000000000000000000000008160008151811061211a57612119613c7a565b5b60200101907effffffffffffffffffffffffffffffffffffffffffffffffffffffffffffff1916908160001a9053507f78000000000000000000000000000000000000000000000000000000000000008160018151811061217e5761217d613c7a565b5b60200101907effffffffffffffffffffffffffffffffffffffffffffffffffffffffffffff1916908160001a905350600060018460026121be9190613c04565b6121c89190613c46565b90505b6001811115612268577f3031323334353637383961626364656600000000000000000000000000000000600f86166010811061220a57612209613c7a565b5b1a60f81b82828151811061222157612220613c7a565b5b60200101907effffffffffffffffffffffffffffffffffffffffffffffffffffffffffffff1916908160001a905350600485901c94508061226190613ca9565b90506121cb565b50600084146122ac576040517f08c379a00000000000000000000000000000000000000000000000000000000081526004016122a390613d1e565b60405180910390fd5b8091505092915050565b6000808273ffffffffffffffffffffffffffffffffffffffff163b119050919050565b600080600090507a184f03e93ff9f4daa797ed6e38ed64bf6a1f0100000000000000008310612337577a184f03e93ff9f4daa797ed6e38ed64bf6a1f010000000000000000838161232d5761232c613bd5565b5b0492506040810190505b6d04ee2d6d415b85acef81000000008310612374576d04ee2d6d415b85acef8100000000838161236a57612369613bd5565b5b0492506020810190505b662386f26fc1000083106123a357662386f26fc10000838161239957612398613bd5565b5b0492506010810190505b6305f5e10083106123cc576305f5e10083816123c2576123c1613bd5565b5b0492506008810190505b61271083106123f15761271083816123e7576123e6613bd5565b5b0492506004810190505b60648310612414576064838161240a57612409613bd5565b5b0492506002810190505b600a8310612423576001810190505b80915050919050565b600073ffffffffffffffffffffffffffffffffffffffff168273ffffffffffffffffffffffffffffffffffffffff160361249b576040517f08c379a000000000000000000000000000000000000000000000000000000000815260040161249290613d8a565b60405180910390fd5b6124a481611be9565b156124e4576040517f08c379a00000000000000000000000000000000000000000000000000000000081526004016124db90613df6565b60405180910390fd5b6124f2600083836001611c2a565b6124fb81611be9565b1561253b576040517f08c379a000000000000000000000000000000000000000000000000000000000815260040161253290613df6565b60405180910390fd5b6001600360008473ffffffffffffffffffffffffffffffffffffffff1673ffffffffffffffffffffffffffffffffffffffff16815260200190815260200160002060008282540192505081905550816002600083815260200190815260200160002060006101000a81548173ffffffffffffffffffffffffffffffffffffffff021916908373ffffffffffffffffffffffffffffffffffffffff160217905550808273ffffffffffffffffffffffffffffffffffffffff16600073ffffffffffffffffffffffffffffffffffffffff167fddf252ad1be2c89b69c2b068fc378daa952ba7f163c4a11628f55a4df523b3ef60405160405180910390a4612645600083836001611c30565b5050565b60007f01ffc9a7000000000000000000000000000000000000000000000000000000007bffffffffffffffffffffffffffffffffffffffffffffffffffffffff1916827bffffffffffffffffffffffffffffffffffffffffffffffffffffffff1916149050919050565b6000604051905090565b600080fd5b600080fd5b60007fffffffff0000000000000000000000000000000000000000000000000000000082169050919050565b6126fc816126c7565b811461270757600080fd5b50565b600081359050612719816126f3565b92915050565b600060208284031215612735576127346126bd565b5b60006127438482850161270a565b91505092915050565b60008115159050919050565b6127618161274c565b82525050565b600060208201905061277c6000830184612758565b92915050565b600081519050919050565b600082825260208201905092915050565b60005b838110156127bc5780820151818401526020810190506127a1565b60008484015250505050565b6000601f19601f8301169050919050565b60006127e482612782565b6127ee818561278d565b93506127fe81856020860161279e565b612807816127c8565b840191505092915050565b6000602082019050818103600083015261282c81846127d9565b905092915050565b6000819050919050565b61284781612834565b811461285257600080fd5b50565b6000813590506128648161283e565b92915050565b6000602082840312156128805761287f6126bd565b5b600061288e84828501612855565b91505092915050565b600073ffffffffffffffffffffffffffffffffffffffff82169050919050565b60006128c282612897565b9050919050565b6128d2816128b7565b82525050565b60006020820190506128ed60008301846128c9565b92915050565b6128fc816128b7565b811461290757600080fd5b50565b600081359050612919816128f3565b92915050565b60008060408385031215612936576129356126bd565b5b60006129448582860161290a565b925050602061295585828601612855565b9150509250929050565b600080600060608486031215612978576129776126bd565b5b60006129868682870161290a565b93505060206129978682870161290a565b92505060406129a886828701612855565b9150509250925092565b6000819050919050565b6129c5816129b2565b81146129d057600080fd5b50565b6000813590506129e2816129bc565b92915050565b6000602082840312156129fe576129fd6126bd565b5b6000612a0c848285016129d3565b91505092915050565b612a1e816129b2565b82525050565b6000602082019050612a396000830184612a15565b92915050565b60008060408385031215612a5657612a556126bd565b5b6000612a64858286016129d3565b9250506020612a758582860161290a565b9150509250929050565b600060208284031215612a9557612a946126bd565b5b6000612aa38482850161290a565b91505092915050565b612ab581612834565b82525050565b6000602082019050612ad06000830184612aac565b92915050565b612adf8161274c565b8114612aea57600080fd5b50565b600081359050612afc81612ad6565b92915050565b60008060408385031215612b1957612b186126bd565b5b6000612b278582860161290a565b9250506020612b3885828601612aed565b9150509250929050565b600080fd5b600080fd5b7f4e487b7100000000000000000000000000000000000000000000000000000000600052604160045260246000fd5b612b84826127c8565b810181811067ffffffffffffffff82111715612ba357612ba2612b4c565b5b80604052505050565b6000612bb66126b3565b9050612bc28282612b7b565b919050565b600067ffffffffffffffff821115612be257612be1612b4c565b5b612beb826127c8565b9050602081019050919050565b82818337600083830152505050565b6000612c1a612c1584612bc7565b612bac565b905082815260208101848484011115612c3657612c35612b47565b5b612c41848285612bf8565b509392505050565b600082601f830112612c5e57612c5d612b42565b5b8135612c6e848260208601612c07565b91505092915050565b60008060008060808587031215612c9157612c906126bd565b5b6000612c9f8782880161290a565b9450506020612cb08782880161290a565b9350506040612cc187828801612855565b925050606085013567ffffffffffffffff811115612ce257612ce16126c2565b5b612cee87828801612c49565b91505092959194509250565b600067ffffffffffffffff821115612d1557612d14612b4c565b5b612d1e826127c8565b9050602081019050919050565b6000612d3e612d3984612cfa565b612bac565b905082815260208101848484011115612d5a57612d59612b47565b5b612d65848285612bf8565b509392505050565b600082601f830112612d8257612d81612b42565b5b8135612d92848260208601612d2b565b91505092915050565b60008060408385031215612db257612db16126bd565b5b6000612dc08582860161290a565b925050602083013567ffffffffffffffff811115612de157612de06126c2565b5b612ded85828601612d6d565b9150509250929050565b60008060408385031215612e0e57612e0d6126bd565b5b6000612e1c8582860161290a565b9250506020612e2d8582860161290a565b9150509250929050565b7f4e487b7100000000000000000000000000000000000000000000000000000000600052602260045260246000fd5b60006002820490506001821680612e7e57607f821691505b602082108103612e9157612e90612e37565b5b50919050565b7f4552433732313a20617070726f76616c20746f2063757272656e74206f776e6560008201527f7200000000000000000000000000000000000000000000000000000000000000602082015250565b6000612ef360218361278d565b9150612efe82612e97565b604082019050919050565b60006020820190508181036000830152612f2281612ee6565b9050919050565b7f4552433732313a20617070726f76652063616c6c6572206973206e6f7420746f60008201527f6b656e206f776e6572206f7220617070726f76656420666f7220616c6c000000602082015250565b6000612f85603d8361278d565b9150612f9082612f29565b604082019050919050565b60006020820190508181036000830152612fb481612f78565b9050919050565b7f4552433732313a2063616c6c6572206973206e6f7420746f6b656e206f776e6560008201527f72206f7220617070726f76656400000000000000000000000000000000000000602082015250565b6000613017602d8361278d565b915061302282612fbb565b604082019050919050565b600060208201905081810360008301526130468161300a565b9050919050565b7f474c424e46543a20696e76616c6964206163636f756e74206164647265737300600082015250565b6000613083601f8361278d565b915061308e8261304d565b602082019050919050565b600060208201905081810360008301526130b281613076565b9050919050565b7f416363657373436f6e74726f6c3a2063616e206f6e6c792072656e6f756e636560008201527f20726f6c657320666f722073656c660000000000000000000000000000000000602082015250565b6000613115602f8361278d565b9150613120826130b9565b604082019050919050565b6000602082019050818103600083015261314481613108565b9050919050565b7f4552433732313a20696e76616c696420746f6b656e2049440000000000000000600082015250565b600061318160188361278d565b915061318c8261314b565b602082019050919050565b600060208201905081810360008301526131b081613174565b9050919050565b7f4552433732313a2061646472657373207a65726f206973206e6f74206120766160008201527f6c6964206f776e65720000000000000000000000000000000000000000000000602082015250565b600061321360298361278d565b915061321e826131b7565b604082019050919050565b6000602082019050818103600083015261324281613206565b9050919050565b600081905092915050565b600061325f82612782565b6132698185613249565b935061327981856020860161279e565b80840191505092915050565b60006132918285613254565b915061329d8284613254565b91508190509392505050565b7f474c424e46543a206d7573742068617665206d696e74657220726f6c6520746f60008201527f206d696e74000000000000000000000000000000000000000000000000000000602082015250565b600061330560258361278d565b9150613310826132a9565b604082019050919050565b60006020820190508181036000830152613334816132f8565b9050919050565b7f4e487b7100000000000000000000000000000000000000000000000000000000600052601160045260246000fd5b600061337582612834565b91507fffffffffffffffffffffffffffffffffffffffffffffffffffffffffffffffff82036133a7576133a661333b565b5b600182019050919050565b60006060820190506133c760008301866128c9565b6133d46020830185612aac565b81810360408301526133e681846127d9565b9050949350505050565b7f4f776e61626c653a206e6577206f776e657220697320746865207a65726f206160008201527f6464726573730000000000000000000000000000000000000000000000000000602082015250565b600061344c60268361278d565b9150613457826133f0565b604082019050919050565b6000602082019050818103600083015261347b8161343f565b9050919050565b7f4552433732313a207472616e736665722066726f6d20696e636f72726563742060008201527f6f776e6572000000000000000000000000000000000000000000000000000000602082015250565b60006134de60258361278d565b91506134e982613482565b604082019050919050565b6000602082019050818103600083015261350d816134d1565b9050919050565b7f4552433732313a207472616e7366657220746f20746865207a65726f2061646460008201527f7265737300000000000000000000000000000000000000000000000000000000602082015250565b600061357060248361278d565b915061357b82613514565b604082019050919050565b6000602082019050818103600083015261359f81613563565b9050919050565b7f4f776e61626c653a2063616c6c6572206973206e6f7420746865206f776e6572600082015250565b60006135dc60208361278d565b91506135e7826135a6565b602082019050919050565b6000602082019050818103600083015261360b816135cf565b9050919050565b7f4552433732313a20617070726f766520746f2063616c6c657200000000000000600082015250565b600061364860198361278d565b915061365382613612565b602082019050919050565b600060208201905081810360008301526136778161363b565b9050919050565b7f4552433732313a207472616e7366657220746f206e6f6e20455243373231526560008201527f63656976657220696d706c656d656e7465720000000000000000000000000000602082015250565b60006136da60328361278d565b91506136e58261367e565b604082019050919050565b60006020820190508181036000830152613709816136cd565b9050919050565b7f45524337323155524953746f726167653a2055524920736574206f66206e6f6e60008201527f6578697374656e7420746f6b656e000000000000000000000000000000000000602082015250565b600061376c602e8361278d565b915061377782613710565b604082019050919050565b6000602082019050818103600083015261379b8161375f565b9050919050565b60008190508160005260206000209050919050565b60006020601f8301049050919050565b600082821b905092915050565b6000600883026138047fffffffffffffffffffffffffffffffffffffffffffffffffffffffffffffffff826137c7565b61380e86836137c7565b95508019841693508086168417925050509392505050565b6000819050919050565b600061384b61384661384184612834565b613826565b612834565b9050919050565b6000819050919050565b61386583613830565b61387961387182613852565b8484546137d4565b825550505050565b600090565b61388e613881565b61389981848461385c565b505050565b5b818110156138bd576138b2600082613886565b60018101905061389f565b5050565b601f821115613902576138d3816137a2565b6138dc846137b7565b810160208510156138eb578190505b6138ff6138f7856137b7565b83018261389e565b50505b505050565b600082821c905092915050565b600061392560001984600802613907565b1980831691505092915050565b600061393e8383613914565b9150826002028217905092915050565b61395782612782565b67ffffffffffffffff8111156139705761396f612b4c565b5b61397a8254612e66565b6139858282856138c1565b600060209050601f8311600181146139b857600084156139a6578287015190505b6139b08582613932565b865550613a18565b601f1984166139c6866137a2565b60005b828110156139ee578489015182556001820191506020850194506020810190506139c9565b86831015613a0b5784890151613a07601f891682613914565b8355505b6001600288020188555050505b505050505050565b7f416363657373436f6e74726f6c3a206163636f756e7420000000000000000000600082015250565b6000613a56601783613249565b9150613a6182613a20565b601782019050919050565b7f206973206d697373696e6720726f6c6520000000000000000000000000000000600082015250565b6000613aa2601183613249565b9150613aad82613a6c565b601182019050919050565b6000613ac382613a49565b9150613acf8285613254565b9150613ada82613a95565b9150613ae68284613254565b91508190509392505050565b600081519050919050565b600082825260208201905092915050565b6000613b1982613af2565b613b238185613afd565b9350613b3381856020860161279e565b613b3c816127c8565b840191505092915050565b6000608082019050613b5c60008301876128c9565b613b6960208301866128c9565b613b766040830185612aac565b8181036060830152613b888184613b0e565b905095945050505050565b600081519050613ba2816126f3565b92915050565b600060208284031215613bbe57613bbd6126bd565b5b6000613bcc84828501613b93565b91505092915050565b7f4e487b7100000000000000000000000000000000000000000000000000000000600052601260045260246000fd5b6000613c0f82612834565b9150613c1a83612834565b9250828202613c2881612834565b91508282048414831517613c3f57613c3e61333b565b5b5092915050565b6000613c5182612834565b9150613c5c83612834565b9250828201905080821115613c7457613c7361333b565b5b92915050565b7f4e487b7100000000000000000000000000000000000000000000000000000000600052603260045260246000fd5b6000613cb482612834565b915060008203613cc757613cc661333b565b5b600182039050919050565b7f537472696e67733a20686578206c656e67746820696e73756666696369656e74600082015250565b6000613d0860208361278d565b9150613d1382613cd2565b602082019050919050565b60006020820190508181036000830152613d3781613cfb565b9050919050565b7f4552433732313a206d696e7420746f20746865207a65726f2061646472657373600082015250565b6000613d7460208361278d565b9150613d7f82613d3e565b602082019050919050565b60006020820190508181036000830152613da381613d67565b9050919050565b7f4552433732313a20746f6b656e20616c7265616479206d696e74656400000000600082015250565b6000613de0601c8361278d565b9150613deb82613daa565b602082019050919050565b60006020820190508181036000830152613e0f81613dd3565b905091905056fea2646970667358221220b3847b5c119a740b547a3a15c6aea47fea26a5c4b96f23500e91c334804ee10064736f6c63430008130033",
  "immutableReferences": {},
  "source": "// SPDX-License-Identifier: MIT\r\npragma solidity ^0.8.0;\r\n\r\nimport \"@openzeppelin/contracts/token/ERC721/extensions/ERC721URIStorage.sol\";\r\nimport \"@openzeppelin/contracts/access/Ownable.sol\";\r\nimport \"@openzeppelin/contracts/access/AccessControl.sol\";\r\n\r\ncontract GLBNFT is ERC721URIStorage, Ownable, AccessControl {\r\n    bytes32 public constant MINTER_ROLE = keccak256(\"MINTER_ROLE\");\r\n    uint256 private _nextTokenId;\r\n\r\n    event TokenMinted(address to, uint256 tokenId, string uri);\r\n\r\n    constructor(address initialOwner) ERC721(\"GLBNFT\", \"GLB\") {\r\n        _setupRole(DEFAULT_ADMIN_ROLE, msg.sender);\r\n        _setupRole(MINTER_ROLE, msg.sender);\r\n        transferOwnership(initialOwner);\r\n    }\r\n\r\n    function supportsInterface(\r\n        bytes4 interfaceId\r\n    )\r\n        public\r\n        view\r\n        virtual\r\n        override(ERC721URIStorage, AccessControl)\r\n        returns (bool)\r\n    {\r\n        return super.supportsInterface(interfaceId);\r\n    }\r\n\r\n    function safeMint(\r\n        address to,\r\n        string memory uri\r\n    ) public onlyRole(MINTER_ROLE) returns (uint256) {\r\n        require(\r\n            hasRole(MINTER_ROLE, msg.sender),\r\n            \"GLBNFT: must have minter role to mint\"\r\n        );\r\n\r\n        uint256 tokenId = _nextTokenId++;\r\n        _safeMint(to, tokenId);\r\n        _setTokenURI(tokenId, uri);\r\n        emit TokenMinted(to, tokenId, uri);\r\n        return tokenId;\r\n    }\r\n\r\n    function addMinter(address account) public onlyOwner {\r\n        require(account != address(0), \"GLBNFT: invalid account address\");\r\n\r\n        grantRole(MINTER_ROLE, account);\r\n    }\r\n\r\n    function removeMinter(address account) public onlyOwner {\r\n        require(account != address(0), \"GLBNFT: invalid account address\");\r\n\r\n        revokeRole(MINTER_ROLE, account);\r\n    }\r\n}\r\n",
  "sourcePath": "C:\\Users\\Yash kanjariya\\Desktop\\Projects\\three-nft\\server\\contracts\\GLBNFT.sol",
  "compiler": {
    "name": "solc",
    "version": "0.8.19+commit.7dd6d404.Emscripten.clang"
  },
  "schemaVersion": "3.4.16",
  "updatedAt": "2024-06-05T03:26:27.145Z",
  "networkType": "ethereum",
  "devdoc": {
    "events": {
      "Approval(address,address,uint256)": {
        "details": "Emitted when `owner` enables `approved` to manage the `tokenId` token."
      },
      "ApprovalForAll(address,address,bool)": {
        "details": "Emitted when `owner` enables or disables (`approved`) `operator` to manage all of its assets."
      },
      "BatchMetadataUpdate(uint256,uint256)": {
        "details": "This event emits when the metadata of a range of tokens is changed. So that the third-party platforms such as NFT market could timely update the images and related attributes of the NFTs."
      },
      "MetadataUpdate(uint256)": {
        "details": "This event emits when the metadata of a token is changed. So that the third-party platforms such as NFT market could timely update the images and related attributes of the NFT."
      },
      "RoleAdminChanged(bytes32,bytes32,bytes32)": {
        "details": "Emitted when `newAdminRole` is set as ``role``'s admin role, replacing `previousAdminRole` `DEFAULT_ADMIN_ROLE` is the starting admin for all roles, despite {RoleAdminChanged} not being emitted signaling this. _Available since v3.1._"
      },
      "RoleGranted(bytes32,address,address)": {
        "details": "Emitted when `account` is granted `role`. `sender` is the account that originated the contract call, an admin role bearer except when using {AccessControl-_setupRole}."
      },
      "RoleRevoked(bytes32,address,address)": {
        "details": "Emitted when `account` is revoked `role`. `sender` is the account that originated the contract call:   - if using `revokeRole`, it is the admin role bearer   - if using `renounceRole`, it is the role bearer (i.e. `account`)"
      },
      "Transfer(address,address,uint256)": {
        "details": "Emitted when `tokenId` token is transferred from `from` to `to`."
      }
    },
    "kind": "dev",
    "methods": {
      "approve(address,uint256)": {
        "details": "See {IERC721-approve}."
      },
      "balanceOf(address)": {
        "details": "See {IERC721-balanceOf}."
      },
      "getApproved(uint256)": {
        "details": "See {IERC721-getApproved}."
      },
      "getRoleAdmin(bytes32)": {
        "details": "Returns the admin role that controls `role`. See {grantRole} and {revokeRole}. To change a role's admin, use {_setRoleAdmin}."
      },
      "grantRole(bytes32,address)": {
        "details": "Grants `role` to `account`. If `account` had not been already granted `role`, emits a {RoleGranted} event. Requirements: - the caller must have ``role``'s admin role. May emit a {RoleGranted} event."
      },
      "hasRole(bytes32,address)": {
        "details": "Returns `true` if `account` has been granted `role`."
      },
      "isApprovedForAll(address,address)": {
        "details": "See {IERC721-isApprovedForAll}."
      },
      "name()": {
        "details": "See {IERC721Metadata-name}."
      },
      "owner()": {
        "details": "Returns the address of the current owner."
      },
      "ownerOf(uint256)": {
        "details": "See {IERC721-ownerOf}."
      },
      "renounceOwnership()": {
        "details": "Leaves the contract without owner. It will not be possible to call `onlyOwner` functions. Can only be called by the current owner. NOTE: Renouncing ownership will leave the contract without an owner, thereby disabling any functionality that is only available to the owner."
      },
      "renounceRole(bytes32,address)": {
        "details": "Revokes `role` from the calling account. Roles are often managed via {grantRole} and {revokeRole}: this function's purpose is to provide a mechanism for accounts to lose their privileges if they are compromised (such as when a trusted device is misplaced). If the calling account had been revoked `role`, emits a {RoleRevoked} event. Requirements: - the caller must be `account`. May emit a {RoleRevoked} event."
      },
      "revokeRole(bytes32,address)": {
        "details": "Revokes `role` from `account`. If `account` had been granted `role`, emits a {RoleRevoked} event. Requirements: - the caller must have ``role``'s admin role. May emit a {RoleRevoked} event."
      },
      "safeTransferFrom(address,address,uint256)": {
        "details": "See {IERC721-safeTransferFrom}."
      },
      "safeTransferFrom(address,address,uint256,bytes)": {
        "details": "See {IERC721-safeTransferFrom}."
      },
      "setApprovalForAll(address,bool)": {
        "details": "See {IERC721-setApprovalForAll}."
      },
      "symbol()": {
        "details": "See {IERC721Metadata-symbol}."
      },
      "tokenURI(uint256)": {
        "details": "See {IERC721Metadata-tokenURI}."
      },
      "transferFrom(address,address,uint256)": {
        "details": "See {IERC721-transferFrom}."
      },
      "transferOwnership(address)": {
        "details": "Transfers ownership of the contract to a new account (`newOwner`). Can only be called by the current owner."
      }
    },
    "version": 1
  },
  "userdoc": {
    "kind": "user",
    "methods": {},
    "version": 1
  }
}