{
  "contractName": "GLBNFT",
  "abi": [
    {
      "inputs": [
        {
          "internalType": "address",
          "name": "initialOwner",
          "type": "address"
        }
      ],
      "stateMutability": "nonpayable",
      "type": "constructor"
    },
    {
      "anonymous": false,
      "inputs": [
        {
          "indexed": true,
          "internalType": "address",
          "name": "owner",
          "type": "address"
        },
        {
          "indexed": true,
          "internalType": "address",
          "name": "approved",
          "type": "address"
        },
        {
          "indexed": true,
          "internalType": "uint256",
          "name": "tokenId",
          "type": "uint256"
        }
      ],
      "name": "Approval",
      "type": "event"
    },
    {
      "anonymous": false,
      "inputs": [
        {
          "indexed": true,
          "internalType": "address",
          "name": "owner",
          "type": "address"
        },
        {
          "indexed": true,
          "internalType": "address",
          "name": "operator",
          "type": "address"
        },
        {
          "indexed": false,
          "internalType": "bool",
          "name": "approved",
          "type": "bool"
        }
      ],
      "name": "ApprovalForAll",
      "type": "event"
    },
    {
      "anonymous": false,
      "inputs": [
        {
          "indexed": false,
          "internalType": "uint256",
          "name": "_fromTokenId",
          "type": "uint256"
        },
        {
          "indexed": false,
          "internalType": "uint256",
          "name": "_toTokenId",
          "type": "uint256"
        }
      ],
      "name": "BatchMetadataUpdate",
      "type": "event"
    },
    {
      "anonymous": false,
      "inputs": [
        {
          "indexed": false,
          "internalType": "uint256",
          "name": "_tokenId",
          "type": "uint256"
        }
      ],
      "name": "MetadataUpdate",
      "type": "event"
    },
    {
      "anonymous": false,
      "inputs": [
        {
          "indexed": true,
          "internalType": "address",
          "name": "previousOwner",
          "type": "address"
        },
        {
          "indexed": true,
          "internalType": "address",
          "name": "newOwner",
          "type": "address"
        }
      ],
      "name": "OwnershipTransferred",
      "type": "event"
    },
    {
      "anonymous": false,
      "inputs": [
        {
          "indexed": true,
          "internalType": "bytes32",
          "name": "role",
          "type": "bytes32"
        },
        {
          "indexed": true,
          "internalType": "bytes32",
          "name": "previousAdminRole",
          "type": "bytes32"
        },
        {
          "indexed": true,
          "internalType": "bytes32",
          "name": "newAdminRole",
          "type": "bytes32"
        }
      ],
      "name": "RoleAdminChanged",
      "type": "event"
    },
    {
      "anonymous": false,
      "inputs": [
        {
          "indexed": true,
          "internalType": "bytes32",
          "name": "role",
          "type": "bytes32"
        },
        {
          "indexed": true,
          "internalType": "address",
          "name": "account",
          "type": "address"
        },
        {
          "indexed": true,
          "internalType": "address",
          "name": "sender",
          "type": "address"
        }
      ],
      "name": "RoleGranted",
      "type": "event"
    },
    {
      "anonymous": false,
      "inputs": [
        {
          "indexed": true,
          "internalType": "bytes32",
          "name": "role",
          "type": "bytes32"
        },
        {
          "indexed": true,
          "internalType": "address",
          "name": "account",
          "type": "address"
        },
        {
          "indexed": true,
          "internalType": "address",
          "name": "sender",
          "type": "address"
        }
      ],
      "name": "RoleRevoked",
      "type": "event"
    },
    {
      "anonymous": false,
      "inputs": [
        {
          "indexed": false,
          "internalType": "address",
          "name": "to",
          "type": "address"
        },
        {
          "indexed": false,
          "internalType": "uint256",
          "name": "tokenId",
          "type": "uint256"
        },
        {
          "indexed": false,
          "internalType": "string",
          "name": "uri",
          "type": "string"
        }
      ],
      "name": "TokenMinted",
      "type": "event"
    },
    {
      "anonymous": false,
      "inputs": [
        {
          "indexed": true,
          "internalType": "address",
          "name": "from",
          "type": "address"
        },
        {
          "indexed": true,
          "internalType": "address",
          "name": "to",
          "type": "address"
        },
        {
          "indexed": true,
          "internalType": "uint256",
          "name": "tokenId",
          "type": "uint256"
        }
      ],
      "name": "Transfer",
      "type": "event"
    },
    {
      "inputs": [],
      "name": "DEFAULT_ADMIN_ROLE",
      "outputs": [
        {
          "internalType": "bytes32",
          "name": "",
          "type": "bytes32"
        }
      ],
      "stateMutability": "view",
      "type": "function",
      "constant": true
    },
    {
      "inputs": [],
      "name": "MINTER_ROLE",
      "outputs": [
        {
          "internalType": "bytes32",
          "name": "",
          "type": "bytes32"
        }
      ],
      "stateMutability": "view",
      "type": "function",
      "constant": true
    },
    {
      "inputs": [
        {
          "internalType": "address",
          "name": "to",
          "type": "address"
        },
        {
          "internalType": "uint256",
          "name": "tokenId",
          "type": "uint256"
        }
      ],
      "name": "approve",
      "outputs": [],
      "stateMutability": "nonpayable",
      "type": "function"
    },
    {
      "inputs": [
        {
          "internalType": "address",
          "name": "owner",
          "type": "address"
        }
      ],
      "name": "balanceOf",
      "outputs": [
        {
          "internalType": "uint256",
          "name": "",
          "type": "uint256"
        }
      ],
      "stateMutability": "view",
      "type": "function",
      "constant": true
    },
    {
      "inputs": [
        {
          "internalType": "uint256",
          "name": "tokenId",
          "type": "uint256"
        }
      ],
      "name": "getApproved",
      "outputs": [
        {
          "internalType": "address",
          "name": "",
          "type": "address"
        }
      ],
      "stateMutability": "view",
      "type": "function",
      "constant": true
    },
    {
      "inputs": [
        {
          "internalType": "bytes32",
          "name": "role",
          "type": "bytes32"
        }
      ],
      "name": "getRoleAdmin",
      "outputs": [
        {
          "internalType": "bytes32",
          "name": "",
          "type": "bytes32"
        }
      ],
      "stateMutability": "view",
      "type": "function",
      "constant": true
    },
    {
      "inputs": [
        {
          "internalType": "bytes32",
          "name": "role",
          "type": "bytes32"
        },
        {
          "internalType": "address",
          "name": "account",
          "type": "address"
        }
      ],
      "name": "grantRole",
      "outputs": [],
      "stateMutability": "nonpayable",
      "type": "function"
    },
    {
      "inputs": [
        {
          "internalType": "bytes32",
          "name": "role",
          "type": "bytes32"
        },
        {
          "internalType": "address",
          "name": "account",
          "type": "address"
        }
      ],
      "name": "hasRole",
      "outputs": [
        {
          "internalType": "bool",
          "name": "",
          "type": "bool"
        }
      ],
      "stateMutability": "view",
      "type": "function",
      "constant": true
    },
    {
      "inputs": [
        {
          "internalType": "address",
          "name": "owner",
          "type": "address"
        },
        {
          "internalType": "address",
          "name": "operator",
          "type": "address"
        }
      ],
      "name": "isApprovedForAll",
      "outputs": [
        {
          "internalType": "bool",
          "name": "",
          "type": "bool"
        }
      ],
      "stateMutability": "view",
      "type": "function",
      "constant": true
    },
    {
      "inputs": [],
      "name": "name",
      "outputs": [
        {
          "internalType": "string",
          "name": "",
          "type": "string"
        }
      ],
      "stateMutability": "view",
      "type": "function",
      "constant": true
    },
    {
      "inputs": [],
      "name": "owner",
      "outputs": [
        {
          "internalType": "address",
          "name": "",
          "type": "address"
        }
      ],
      "stateMutability": "view",
      "type": "function",
      "constant": true
    },
    {
      "inputs": [
        {
          "internalType": "uint256",
          "name": "tokenId",
          "type": "uint256"
        }
      ],
      "name": "ownerOf",
      "outputs": [
        {
          "internalType": "address",
          "name": "",
          "type": "address"
        }
      ],
      "stateMutability": "view",
      "type": "function",
      "constant": true
    },
    {
      "inputs": [],
      "name": "renounceOwnership",
      "outputs": [],
      "stateMutability": "nonpayable",
      "type": "function"
    },
    {
      "inputs": [
        {
          "internalType": "bytes32",
          "name": "role",
          "type": "bytes32"
        },
        {
          "internalType": "address",
          "name": "account",
          "type": "address"
        }
      ],
      "name": "renounceRole",
      "outputs": [],
      "stateMutability": "nonpayable",
      "type": "function"
    },
    {
      "inputs": [
        {
          "internalType": "bytes32",
          "name": "role",
          "type": "bytes32"
        },
        {
          "internalType": "address",
          "name": "account",
          "type": "address"
        }
      ],
      "name": "revokeRole",
      "outputs": [],
      "stateMutability": "nonpayable",
      "type": "function"
    },
    {
      "inputs": [
        {
          "internalType": "address",
          "name": "from",
          "type": "address"
        },
        {
          "internalType": "address",
          "name": "to",
          "type": "address"
        },
        {
          "internalType": "uint256",
          "name": "tokenId",
          "type": "uint256"
        }
      ],
      "name": "safeTransferFrom",
      "outputs": [],
      "stateMutability": "nonpayable",
      "type": "function"
    },
    {
      "inputs": [
        {
          "internalType": "address",
          "name": "from",
          "type": "address"
        },
        {
          "internalType": "address",
          "name": "to",
          "type": "address"
        },
        {
          "internalType": "uint256",
          "name": "tokenId",
          "type": "uint256"
        },
        {
          "internalType": "bytes",
          "name": "data",
          "type": "bytes"
        }
      ],
      "name": "safeTransferFrom",
      "outputs": [],
      "stateMutability": "nonpayable",
      "type": "function"
    },
    {
      "inputs": [
        {
          "internalType": "address",
          "name": "operator",
          "type": "address"
        },
        {
          "internalType": "bool",
          "name": "approved",
          "type": "bool"
        }
      ],
      "name": "setApprovalForAll",
      "outputs": [],
      "stateMutability": "nonpayable",
      "type": "function"
    },
    {
      "inputs": [],
      "name": "symbol",
      "outputs": [
        {
          "internalType": "string",
          "name": "",
          "type": "string"
        }
      ],
      "stateMutability": "view",
      "type": "function",
      "constant": true
    },
    {
      "inputs": [
        {
          "internalType": "uint256",
          "name": "index",
          "type": "uint256"
        }
      ],
      "name": "tokenByIndex",
      "outputs": [
        {
          "internalType": "uint256",
          "name": "",
          "type": "uint256"
        }
      ],
      "stateMutability": "view",
      "type": "function",
      "constant": true
    },
    {
      "inputs": [
        {
          "internalType": "address",
          "name": "owner",
          "type": "address"
        },
        {
          "internalType": "uint256",
          "name": "index",
          "type": "uint256"
        }
      ],
      "name": "tokenOfOwnerByIndex",
      "outputs": [
        {
          "internalType": "uint256",
          "name": "",
          "type": "uint256"
        }
      ],
      "stateMutability": "view",
      "type": "function",
      "constant": true
    },
    {
      "inputs": [],
      "name": "totalSupply",
      "outputs": [
        {
          "internalType": "uint256",
          "name": "",
          "type": "uint256"
        }
      ],
      "stateMutability": "view",
      "type": "function",
      "constant": true
    },
    {
      "inputs": [
        {
          "internalType": "address",
          "name": "from",
          "type": "address"
        },
        {
          "internalType": "address",
          "name": "to",
          "type": "address"
        },
        {
          "internalType": "uint256",
          "name": "tokenId",
          "type": "uint256"
        }
      ],
      "name": "transferFrom",
      "outputs": [],
      "stateMutability": "nonpayable",
      "type": "function"
    },
    {
      "inputs": [
        {
          "internalType": "address",
          "name": "newOwner",
          "type": "address"
        }
      ],
      "name": "transferOwnership",
      "outputs": [],
      "stateMutability": "nonpayable",
      "type": "function"
    },
    {
      "inputs": [
        {
          "internalType": "bytes4",
          "name": "interfaceId",
          "type": "bytes4"
        }
      ],
      "name": "supportsInterface",
      "outputs": [
        {
          "internalType": "bool",
          "name": "",
          "type": "bool"
        }
      ],
      "stateMutability": "view",
      "type": "function",
      "constant": true
    },
    {
      "inputs": [
        {
          "internalType": "address",
          "name": "to",
          "type": "address"
        },
        {
          "internalType": "string",
          "name": "uri",
          "type": "string"
        }
      ],
      "name": "safeMint",
      "outputs": [
        {
          "internalType": "uint256",
          "name": "",
          "type": "uint256"
        }
      ],
      "stateMutability": "nonpayable",
      "type": "function"
    },
    {
      "inputs": [
        {
          "internalType": "address",
          "name": "account",
          "type": "address"
        }
      ],
      "name": "addMinter",
      "outputs": [],
      "stateMutability": "nonpayable",
      "type": "function"
    },
    {
      "inputs": [
        {
          "internalType": "address",
          "name": "account",
          "type": "address"
        }
      ],
      "name": "removeMinter",
      "outputs": [],
      "stateMutability": "nonpayable",
      "type": "function"
    },
    {
      "inputs": [
        {
          "internalType": "uint256",
          "name": "tokenId",
          "type": "uint256"
        }
      ],
      "name": "tokenURI",
      "outputs": [
        {
          "internalType": "string",
          "name": "",
          "type": "string"
        }
      ],
      "stateMutability": "view",
      "type": "function",
      "constant": true
    }
  ],
  "bytecode": "0x60806040523480156200001157600080fd5b506040516200514b3803806200514b833981810160405281019062000037919062000544565b6040518060400160405280600681526020017f474c424e465400000000000000000000000000000000000000000000000000008152506040518060400160405280600381526020017f474c4200000000000000000000000000000000000000000000000000000000008152508160009081620000b49190620007f0565b508060019081620000c69190620007f0565b505050620000e9620000dd6200014860201b60201c565b6200015060201b60201c565b620000fe6000801b336200021660201b60201c565b620001307f9f2df0fed2c77648de5860a4cc508cd0818c85b8b8a1ab4ceeef8d981c8956a6336200021660201b60201c565b62000141816200022c60201b60201c565b50620009f2565b600033905090565b6000600b60009054906101000a900473ffffffffffffffffffffffffffffffffffffffff16905081600b60006101000a81548173ffffffffffffffffffffffffffffffffffffffff021916908373ffffffffffffffffffffffffffffffffffffffff1602179055508173ffffffffffffffffffffffffffffffffffffffff168173ffffffffffffffffffffffffffffffffffffffff167f8be0079c531659141344cd1fd0a4f28419497f9722a3daafe3b4186f6b6457e060405160405180910390a35050565b620002288282620002c260201b60201c565b5050565b6200023c620003b460201b60201c565b600073ffffffffffffffffffffffffffffffffffffffff168173ffffffffffffffffffffffffffffffffffffffff1603620002ae576040517f08c379a0000000000000000000000000000000000000000000000000000000008152600401620002a5906200095e565b60405180910390fd5b620002bf816200015060201b60201c565b50565b620002d482826200044560201b60201c565b620003b0576001600c600084815260200190815260200160002060000160008373ffffffffffffffffffffffffffffffffffffffff1673ffffffffffffffffffffffffffffffffffffffff16815260200190815260200160002060006101000a81548160ff021916908315150217905550620003556200014860201b60201c565b73ffffffffffffffffffffffffffffffffffffffff168173ffffffffffffffffffffffffffffffffffffffff16837f2f8788117e7eff1d82e926ec794901d17c78024a50270940304540a733656f0d60405160405180910390a45b5050565b620003c46200014860201b60201c565b73ffffffffffffffffffffffffffffffffffffffff16620003ea620004b060201b60201c565b73ffffffffffffffffffffffffffffffffffffffff161462000443576040517f08c379a00000000000000000000000000000000000000000000000000000000081526004016200043a90620009d0565b60405180910390fd5b565b6000600c600084815260200190815260200160002060000160008373ffffffffffffffffffffffffffffffffffffffff1673ffffffffffffffffffffffffffffffffffffffff16815260200190815260200160002060009054906101000a900460ff16905092915050565b6000600b60009054906101000a900473ffffffffffffffffffffffffffffffffffffffff16905090565b600080fd5b600073ffffffffffffffffffffffffffffffffffffffff82169050919050565b60006200050c82620004df565b9050919050565b6200051e81620004ff565b81146200052a57600080fd5b50565b6000815190506200053e8162000513565b92915050565b6000602082840312156200055d576200055c620004da565b5b60006200056d848285016200052d565b91505092915050565b600081519050919050565b7f4e487b7100000000000000000000000000000000000000000000000000000000600052604160045260246000fd5b7f4e487b7100000000000000000000000000000000000000000000000000000000600052602260045260246000fd5b60006002820490506001821680620005f857607f821691505b6020821081036200060e576200060d620005b0565b5b50919050565b60008190508160005260206000209050919050565b60006020601f8301049050919050565b600082821b905092915050565b600060088302620006787fffffffffffffffffffffffffffffffffffffffffffffffffffffffffffffffff8262000639565b62000684868362000639565b95508019841693508086168417925050509392505050565b6000819050919050565b6000819050919050565b6000620006d1620006cb620006c5846200069c565b620006a6565b6200069c565b9050919050565b6000819050919050565b620006ed83620006b0565b62000705620006fc82620006d8565b84845462000646565b825550505050565b600090565b6200071c6200070d565b62000729818484620006e2565b505050565b5b8181101562000751576200074560008262000712565b6001810190506200072f565b5050565b601f821115620007a0576200076a8162000614565b620007758462000629565b8101602085101562000785578190505b6200079d620007948562000629565b8301826200072e565b50505b505050565b600082821c905092915050565b6000620007c560001984600802620007a5565b1980831691505092915050565b6000620007e08383620007b2565b9150826002028217905092915050565b620007fb8262000576565b67ffffffffffffffff81111562000817576200081662000581565b5b620008238254620005df565b6200083082828562000755565b600060209050601f83116001811462000868576000841562000853578287015190505b6200085f8582620007d2565b865550620008cf565b601f198416620008788662000614565b60005b82811015620008a2578489015182556001820191506020850194506020810190506200087b565b86831015620008c25784890151620008be601f891682620007b2565b8355505b6001600288020188555050505b505050505050565b600082825260208201905092915050565b7f4f776e61626c653a206e6577206f776e657220697320746865207a65726f206160008201527f6464726573730000000000000000000000000000000000000000000000000000602082015250565b600062000946602683620008d7565b91506200095382620008e8565b604082019050919050565b60006020820190508181036000830152620009798162000937565b9050919050565b7f4f776e61626c653a2063616c6c6572206973206e6f7420746865206f776e6572600082015250565b6000620009b8602083620008d7565b9150620009c58262000980565b602082019050919050565b60006020820190508181036000830152620009eb81620009a9565b9050919050565b6147498062000a026000396000f3fe608060405234801561001057600080fd5b50600436106101cf5760003560e01c806370a0823111610104578063a22cb465116100a2578063d539139311610071578063d539139314610550578063d547741f1461056e578063e985e9c51461058a578063f2fde38b146105ba576101cf565b8063a22cb465146104b8578063b88d4fde146104d4578063c87b56dd146104f0578063d204c45e14610520576101cf565b806391d14854116100de57806391d148541461043057806395d89b4114610460578063983b2d561461047e578063a217fddf1461049a576101cf565b806370a08231146103d8578063715018a6146104085780638da5cb5b14610412576101cf565b80632f2ff15d1161017157806336568abe1161014b57806336568abe1461034057806342842e0e1461035c5780634f6ccce7146103785780636352211e146103a8576101cf565b80632f2ff15d146102d85780632f745c59146102f45780633092afd514610324576101cf565b8063095ea7b3116101ad578063095ea7b31461025257806318160ddd1461026e57806323b872dd1461028c578063248a9ca3146102a8576101cf565b806301ffc9a7146101d457806306fdde0314610204578063081812fc14610222575b600080fd5b6101ee60048036038101906101e99190612e03565b6105d6565b6040516101fb9190612e4b565b60405180910390f35b61020c6105e8565b6040516102199190612ef6565b60405180910390f35b61023c60048036038101906102379190612f4e565b61067a565b6040516102499190612fbc565b60405180910390f35b61026c60048036038101906102679190613003565b6106c0565b005b6102766107d7565b6040516102839190613052565b60405180910390f35b6102a660048036038101906102a1919061306d565b6107e4565b005b6102c260048036038101906102bd91906130f6565b610844565b6040516102cf9190613132565b60405180910390f35b6102f260048036038101906102ed919061314d565b610864565b005b61030e60048036038101906103099190613003565b610885565b60405161031b9190613052565b60405180910390f35b61033e6004803603810190610339919061318d565b61092a565b005b61035a6004803603810190610355919061314d565b6109ce565b005b6103766004803603810190610371919061306d565b610a51565b005b610392600480360381019061038d9190612f4e565b610a71565b60405161039f9190613052565b60405180910390f35b6103c260048036038101906103bd9190612f4e565b610ae2565b6040516103cf9190612fbc565b60405180910390f35b6103f260048036038101906103ed919061318d565b610b68565b6040516103ff9190613052565b60405180910390f35b610410610c1f565b005b61041a610c33565b6040516104279190612fbc565b60405180910390f35b61044a6004803603810190610445919061314d565b610c5d565b6040516104579190612e4b565b60405180910390f35b610468610cc8565b6040516104759190612ef6565b60405180910390f35b6104986004803603810190610493919061318d565b610d5a565b005b6104a2610dfe565b6040516104af9190613132565b60405180910390f35b6104d260048036038101906104cd91906131e6565b610e05565b005b6104ee60048036038101906104e9919061335b565b610e1b565b005b61050a60048036038101906105059190612f4e565b610e7d565b6040516105179190612ef6565b60405180910390f35b61053a6004803603810190610535919061347f565b610e8f565b6040516105479190613052565b60405180910390f35b610558610f99565b6040516105659190613132565b60405180910390f35b6105886004803603810190610583919061314d565b610fbd565b005b6105a4600480360381019061059f91906134db565b610fde565b6040516105b19190612e4b565b60405180910390f35b6105d460048036038101906105cf919061318d565b611072565b005b60006105e1826110f5565b9050919050565b6060600080546105f79061354a565b80601f01602080910402602001604051908101604052809291908181526020018280546106239061354a565b80156106705780601f1061064557610100808354040283529160200191610670565b820191906000526020600020905b81548152906001019060200180831161065357829003601f168201915b5050505050905090565b60006106858261116f565b6004600083815260200190815260200160002060009054906101000a900473ffffffffffffffffffffffffffffffffffffffff169050919050565b60006106cb82610ae2565b90508073ffffffffffffffffffffffffffffffffffffffff168373ffffffffffffffffffffffffffffffffffffffff160361073b576040517f08c379a0000000000000000000000000000000000000000000000000000000008152600401610732906135ed565b60405180910390fd5b8073ffffffffffffffffffffffffffffffffffffffff1661075a6111ba565b73ffffffffffffffffffffffffffffffffffffffff1614806107895750610788816107836111ba565b610fde565b5b6107c8576040517f08c379a00000000000000000000000000000000000000000000000000000000081526004016107bf9061367f565b60405180910390fd5b6107d283836111c2565b505050565b6000600980549050905090565b6107f56107ef6111ba565b8261127b565b610834576040517f08c379a000000000000000000000000000000000000000000000000000000000815260040161082b90613711565b60405180910390fd5b61083f838383611310565b505050565b6000600c6000838152602001908152602001600020600101549050919050565b61086d82610844565b61087681611609565b610880838361161d565b505050565b600061089083610b68565b82106108d1576040517f08c379a00000000000000000000000000000000000000000000000000000000081526004016108c8906137a3565b60405180910390fd5b600760008473ffffffffffffffffffffffffffffffffffffffff1673ffffffffffffffffffffffffffffffffffffffff168152602001908152602001600020600083815260200190815260200160002054905092915050565b6109326116fe565b600073ffffffffffffffffffffffffffffffffffffffff168173ffffffffffffffffffffffffffffffffffffffff16036109a1576040517f08c379a00000000000000000000000000000000000000000000000000000000081526004016109989061380f565b60405180910390fd5b6109cb7f9f2df0fed2c77648de5860a4cc508cd0818c85b8b8a1ab4ceeef8d981c8956a682610fbd565b50565b6109d66111ba565b73ffffffffffffffffffffffffffffffffffffffff168173ffffffffffffffffffffffffffffffffffffffff1614610a43576040517f08c379a0000000000000000000000000000000000000000000000000000000008152600401610a3a906138a1565b60405180910390fd5b610a4d828261177c565b5050565b610a6c83838360405180602001604052806000815250610e1b565b505050565b6000610a7b6107d7565b8210610abc576040517f08c379a0000000000000000000000000000000000000000000000000000000008152600401610ab390613933565b60405180910390fd5b60098281548110610ad057610acf613953565b5b90600052602060002001549050919050565b600080610aee8361185e565b9050600073ffffffffffffffffffffffffffffffffffffffff168173ffffffffffffffffffffffffffffffffffffffff1603610b5f576040517f08c379a0000000000000000000000000000000000000000000000000000000008152600401610b56906139ce565b60405180910390fd5b80915050919050565b60008073ffffffffffffffffffffffffffffffffffffffff168273ffffffffffffffffffffffffffffffffffffffff1603610bd8576040517f08c379a0000000000000000000000000000000000000000000000000000000008152600401610bcf90613a60565b60405180910390fd5b600360008373ffffffffffffffffffffffffffffffffffffffff1673ffffffffffffffffffffffffffffffffffffffff168152602001908152602001600020549050919050565b610c276116fe565b610c31600061189b565b565b6000600b60009054906101000a900473ffffffffffffffffffffffffffffffffffffffff16905090565b6000600c600084815260200190815260200160002060000160008373ffffffffffffffffffffffffffffffffffffffff1673ffffffffffffffffffffffffffffffffffffffff16815260200190815260200160002060009054906101000a900460ff16905092915050565b606060018054610cd79061354a565b80601f0160208091040260200160405190810160405280929190818152602001828054610d039061354a565b8015610d505780601f10610d2557610100808354040283529160200191610d50565b820191906000526020600020905b815481529060010190602001808311610d3357829003601f168201915b5050505050905090565b610d626116fe565b600073ffffffffffffffffffffffffffffffffffffffff168173ffffffffffffffffffffffffffffffffffffffff1603610dd1576040517f08c379a0000000000000000000000000000000000000000000000000000000008152600401610dc89061380f565b60405180910390fd5b610dfb7f9f2df0fed2c77648de5860a4cc508cd0818c85b8b8a1ab4ceeef8d981c8956a682610864565b50565b6000801b81565b610e17610e106111ba565b8383611961565b5050565b610e2c610e266111ba565b8361127b565b610e6b576040517f08c379a0000000000000000000000000000000000000000000000000000000008152600401610e6290613711565b60405180910390fd5b610e7784848484611acd565b50505050565b6060610e8882611b29565b9050919050565b60007f9f2df0fed2c77648de5860a4cc508cd0818c85b8b8a1ab4ceeef8d981c8956a6610ebb81611609565b610ee57f9f2df0fed2c77648de5860a4cc508cd0818c85b8b8a1ab4ceeef8d981c8956a633610c5d565b610f24576040517f08c379a0000000000000000000000000000000000000000000000000000000008152600401610f1b90613af2565b60405180910390fd5b6000600d6000815480929190610f3990613b41565b919050559050610f498582611c3b565b610f538185611c59565b7fdf92894dc4675a7333caa5903b69cf5d8e8ec0d3f361c88207b6688e525703bb858286604051610f8693929190613b89565b60405180910390a1809250505092915050565b7f9f2df0fed2c77648de5860a4cc508cd0818c85b8b8a1ab4ceeef8d981c8956a681565b610fc682610844565b610fcf81611609565b610fd9838361177c565b505050565b6000600560008473ffffffffffffffffffffffffffffffffffffffff1673ffffffffffffffffffffffffffffffffffffffff16815260200190815260200160002060008373ffffffffffffffffffffffffffffffffffffffff1673ffffffffffffffffffffffffffffffffffffffff16815260200190815260200160002060009054906101000a900460ff16905092915050565b61107a6116fe565b600073ffffffffffffffffffffffffffffffffffffffff168173ffffffffffffffffffffffffffffffffffffffff16036110e9576040517f08c379a00000000000000000000000000000000000000000000000000000000081526004016110e090613c39565b60405180910390fd5b6110f28161189b565b50565b60007f7965db0b000000000000000000000000000000000000000000000000000000007bffffffffffffffffffffffffffffffffffffffffffffffffffffffff1916827bffffffffffffffffffffffffffffffffffffffffffffffffffffffff19161480611168575061116782611cfd565b5b9050919050565b61117881611d77565b6111b7576040517f08c379a00000000000000000000000000000000000000000000000000000000081526004016111ae906139ce565b60405180910390fd5b50565b600033905090565b816004600083815260200190815260200160002060006101000a81548173ffffffffffffffffffffffffffffffffffffffff021916908373ffffffffffffffffffffffffffffffffffffffff160217905550808273ffffffffffffffffffffffffffffffffffffffff1661123583610ae2565b73ffffffffffffffffffffffffffffffffffffffff167f8c5be1e5ebec7d5bd14f71427d1e84f3dd0314c0f7b2291e5b200ac8c7c3b92560405160405180910390a45050565b60008061128783610ae2565b90508073ffffffffffffffffffffffffffffffffffffffff168473ffffffffffffffffffffffffffffffffffffffff1614806112c957506112c88185610fde565b5b8061130757508373ffffffffffffffffffffffffffffffffffffffff166112ef8461067a565b73ffffffffffffffffffffffffffffffffffffffff16145b91505092915050565b8273ffffffffffffffffffffffffffffffffffffffff1661133082610ae2565b73ffffffffffffffffffffffffffffffffffffffff1614611386576040517f08c379a000000000000000000000000000000000000000000000000000000000815260040161137d90613ccb565b60405180910390fd5b600073ffffffffffffffffffffffffffffffffffffffff168273ffffffffffffffffffffffffffffffffffffffff16036113f5576040517f08c379a00000000000000000000000000000000000000000000000000000000081526004016113ec90613d5d565b60405180910390fd5b6114028383836001611db8565b8273ffffffffffffffffffffffffffffffffffffffff1661142282610ae2565b73ffffffffffffffffffffffffffffffffffffffff1614611478576040517f08c379a000000000000000000000000000000000000000000000000000000000815260040161146f90613ccb565b60405180910390fd5b6004600082815260200190815260200160002060006101000a81549073ffffffffffffffffffffffffffffffffffffffff02191690556001600360008573ffffffffffffffffffffffffffffffffffffffff1673ffffffffffffffffffffffffffffffffffffffff168152602001908152602001600020600082825403925050819055506001600360008473ffffffffffffffffffffffffffffffffffffffff1673ffffffffffffffffffffffffffffffffffffffff16815260200190815260200160002060008282540192505081905550816002600083815260200190815260200160002060006101000a81548173ffffffffffffffffffffffffffffffffffffffff021916908373ffffffffffffffffffffffffffffffffffffffff160217905550808273ffffffffffffffffffffffffffffffffffffffff168473ffffffffffffffffffffffffffffffffffffffff167fddf252ad1be2c89b69c2b068fc378daa952ba7f163c4a11628f55a4df523b3ef60405160405180910390a46116048383836001611dca565b505050565b61161a816116156111ba565b611dd0565b50565b6116278282610c5d565b6116fa576001600c600084815260200190815260200160002060000160008373ffffffffffffffffffffffffffffffffffffffff1673ffffffffffffffffffffffffffffffffffffffff16815260200190815260200160002060006101000a81548160ff02191690831515021790555061169f6111ba565b73ffffffffffffffffffffffffffffffffffffffff168173ffffffffffffffffffffffffffffffffffffffff16837f2f8788117e7eff1d82e926ec794901d17c78024a50270940304540a733656f0d60405160405180910390a45b5050565b6117066111ba565b73ffffffffffffffffffffffffffffffffffffffff16611724610c33565b73ffffffffffffffffffffffffffffffffffffffff161461177a576040517f08c379a000000000000000000000000000000000000000000000000000000000815260040161177190613dc9565b60405180910390fd5b565b6117868282610c5d565b1561185a576000600c600084815260200190815260200160002060000160008373ffffffffffffffffffffffffffffffffffffffff1673ffffffffffffffffffffffffffffffffffffffff16815260200190815260200160002060006101000a81548160ff0219169083151502179055506117ff6111ba565b73ffffffffffffffffffffffffffffffffffffffff168173ffffffffffffffffffffffffffffffffffffffff16837ff6391f5c32d9c69d2a47ea670b442974b53935d1edc7fd64eb21e047a839171b60405160405180910390a45b5050565b60006002600083815260200190815260200160002060009054906101000a900473ffffffffffffffffffffffffffffffffffffffff169050919050565b6000600b60009054906101000a900473ffffffffffffffffffffffffffffffffffffffff16905081600b60006101000a81548173ffffffffffffffffffffffffffffffffffffffff021916908373ffffffffffffffffffffffffffffffffffffffff1602179055508173ffffffffffffffffffffffffffffffffffffffff168173ffffffffffffffffffffffffffffffffffffffff167f8be0079c531659141344cd1fd0a4f28419497f9722a3daafe3b4186f6b6457e060405160405180910390a35050565b8173ffffffffffffffffffffffffffffffffffffffff168373ffffffffffffffffffffffffffffffffffffffff16036119cf576040517f08c379a00000000000000000000000000000000000000000000000000000000081526004016119c690613e35565b60405180910390fd5b80600560008573ffffffffffffffffffffffffffffffffffffffff1673ffffffffffffffffffffffffffffffffffffffff16815260200190815260200160002060008473ffffffffffffffffffffffffffffffffffffffff1673ffffffffffffffffffffffffffffffffffffffff16815260200190815260200160002060006101000a81548160ff0219169083151502179055508173ffffffffffffffffffffffffffffffffffffffff168373ffffffffffffffffffffffffffffffffffffffff167f17307eab39ab6107e8899845ad3d59bd9653f200f220920489ca2b5937696c3183604051611ac09190612e4b565b60405180910390a3505050565b611ad8848484611310565b611ae484848484611e55565b611b23576040517f08c379a0000000000000000000000000000000000000000000000000000000008152600401611b1a90613ec7565b60405180910390fd5b50505050565b6060611b348261116f565b6000600660008481526020019081526020016000208054611b549061354a565b80601f0160208091040260200160405190810160405280929190818152602001828054611b809061354a565b8015611bcd5780601f10611ba257610100808354040283529160200191611bcd565b820191906000526020600020905b815481529060010190602001808311611bb057829003601f168201915b505050505090506000611bde611fdc565b90506000815103611bf3578192505050611c36565b600082511115611c28578082604051602001611c10929190613f23565b60405160208183030381529060405292505050611c36565b611c3184611ff3565b925050505b919050565b611c5582826040518060200160405280600081525061205b565b5050565b611c6282611d77565b611ca1576040517f08c379a0000000000000000000000000000000000000000000000000000000008152600401611c9890613fb9565b60405180910390fd5b80600660008481526020019081526020016000209081611cc19190614185565b507ff8e1a15aba9398e019f0b49df1a4fde98ee17ae345cb5f6b5e2c27f5033e8ce782604051611cf19190613052565b60405180910390a15050565b60007f780e9d63000000000000000000000000000000000000000000000000000000007bffffffffffffffffffffffffffffffffffffffffffffffffffffffff1916827bffffffffffffffffffffffffffffffffffffffffffffffffffffffff19161480611d705750611d6f826120b6565b5b9050919050565b60008073ffffffffffffffffffffffffffffffffffffffff16611d998361185e565b73ffffffffffffffffffffffffffffffffffffffff1614159050919050565b611dc484848484612117565b50505050565b50505050565b611dda8282610c5d565b611e5157611de781612275565b611df58360001c60206122a2565b604051602001611e069291906142ef565b6040516020818303038152906040526040517f08c379a0000000000000000000000000000000000000000000000000000000008152600401611e489190612ef6565b60405180910390fd5b5050565b6000611e768473ffffffffffffffffffffffffffffffffffffffff166124de565b15611fcf578373ffffffffffffffffffffffffffffffffffffffff1663150b7a02611e9f6111ba565b8786866040518563ffffffff1660e01b8152600401611ec1949392919061437e565b6020604051808303816000875af1925050508015611efd57506040513d601f19601f82011682018060405250810190611efa91906143df565b60015b611f7f573d8060008114611f2d576040519150601f19603f3d011682016040523d82523d6000602084013e611f32565b606091505b506000815103611f77576040517f08c379a0000000000000000000000000000000000000000000000000000000008152600401611f6e90613ec7565b60405180910390fd5b805181602001fd5b63150b7a0260e01b7bffffffffffffffffffffffffffffffffffffffffffffffffffffffff1916817bffffffffffffffffffffffffffffffffffffffffffffffffffffffff191614915050611fd4565b600190505b949350505050565b606060405180602001604052806000815250905090565b6060611ffe8261116f565b6000612008611fdc565b905060008151116120285760405180602001604052806000815250612053565b8061203284612501565b604051602001612043929190613f23565b6040516020818303038152906040525b915050919050565b61206583836125cf565b6120726000848484611e55565b6120b1576040517f08c379a00000000000000000000000000000000000000000000000000000000081526004016120a890613ec7565b60405180910390fd5b505050565b6000634906490660e01b7bffffffffffffffffffffffffffffffffffffffffffffffffffffffff1916827bffffffffffffffffffffffffffffffffffffffffffffffffffffffff19161480612110575061210f826127ec565b5b9050919050565b612123848484846128ce565b6001811115612167576040517f08c379a000000000000000000000000000000000000000000000000000000000815260040161215e9061447e565b60405180910390fd5b6000829050600073ffffffffffffffffffffffffffffffffffffffff168573ffffffffffffffffffffffffffffffffffffffff16036121ae576121a9816128d4565b6121ed565b8373ffffffffffffffffffffffffffffffffffffffff168573ffffffffffffffffffffffffffffffffffffffff16146121ec576121eb858261291d565b5b5b600073ffffffffffffffffffffffffffffffffffffffff168473ffffffffffffffffffffffffffffffffffffffff160361222f5761222a81612a8a565b61226e565b8473ffffffffffffffffffffffffffffffffffffffff168473ffffffffffffffffffffffffffffffffffffffff161461226d5761226c8482612b5b565b5b5b5050505050565b606061229b8273ffffffffffffffffffffffffffffffffffffffff16601460ff166122a2565b9050919050565b6060600060028360026122b5919061449e565b6122bf91906144e0565b67ffffffffffffffff8111156122d8576122d7613230565b5b6040519080825280601f01601f19166020018201604052801561230a5781602001600182028036833780820191505090505b5090507f30000000000000000000000000000000000000000000000000000000000000008160008151811061234257612341613953565b5b60200101907effffffffffffffffffffffffffffffffffffffffffffffffffffffffffffff1916908160001a9053507f7800000000000000000000000000000000000000000000000000000000000000816001815181106123a6576123a5613953565b5b60200101907effffffffffffffffffffffffffffffffffffffffffffffffffffffffffffff1916908160001a905350600060018460026123e6919061449e565b6123f091906144e0565b90505b6001811115612490577f3031323334353637383961626364656600000000000000000000000000000000600f86166010811061243257612431613953565b5b1a60f81b82828151811061244957612448613953565b5b60200101907effffffffffffffffffffffffffffffffffffffffffffffffffffffffffffff1916908160001a905350600485901c94508061248990614514565b90506123f3565b50600084146124d4576040517f08c379a00000000000000000000000000000000000000000000000000000000081526004016124cb90614589565b60405180910390fd5b8091505092915050565b6000808273ffffffffffffffffffffffffffffffffffffffff163b119050919050565b60606000600161251084612bda565b01905060008167ffffffffffffffff81111561252f5761252e613230565b5b6040519080825280601f01601f1916602001820160405280156125615781602001600182028036833780820191505090505b509050600082602001820190505b6001156125c4578080600190039150507f3031323334353637383961626364656600000000000000000000000000000000600a86061a8153600a85816125b8576125b76145a9565b5b0494506000850361256f575b819350505050919050565b600073ffffffffffffffffffffffffffffffffffffffff168273ffffffffffffffffffffffffffffffffffffffff160361263e576040517f08c379a000000000000000000000000000000000000000000000000000000000815260040161263590614624565b60405180910390fd5b61264781611d77565b15612687576040517f08c379a000000000000000000000000000000000000000000000000000000000815260040161267e90614690565b60405180910390fd5b612695600083836001611db8565b61269e81611d77565b156126de576040517f08c379a00000000000000000000000000000000000000000000000000000000081526004016126d590614690565b60405180910390fd5b6001600360008473ffffffffffffffffffffffffffffffffffffffff1673ffffffffffffffffffffffffffffffffffffffff16815260200190815260200160002060008282540192505081905550816002600083815260200190815260200160002060006101000a81548173ffffffffffffffffffffffffffffffffffffffff021916908373ffffffffffffffffffffffffffffffffffffffff160217905550808273ffffffffffffffffffffffffffffffffffffffff16600073ffffffffffffffffffffffffffffffffffffffff167fddf252ad1be2c89b69c2b068fc378daa952ba7f163c4a11628f55a4df523b3ef60405160405180910390a46127e8600083836001611dca565b5050565b60007f80ac58cd000000000000000000000000000000000000000000000000000000007bffffffffffffffffffffffffffffffffffffffffffffffffffffffff1916827bffffffffffffffffffffffffffffffffffffffffffffffffffffffff191614806128b757507f5b5e139f000000000000000000000000000000000000000000000000000000007bffffffffffffffffffffffffffffffffffffffffffffffffffffffff1916827bffffffffffffffffffffffffffffffffffffffffffffffffffffffff1916145b806128c757506128c682612d2d565b5b9050919050565b50505050565b600980549050600a600083815260200190815260200160002081905550600981908060018154018082558091505060019003906000526020600020016000909190919091505550565b6000600161292a84610b68565b61293491906146b0565b9050600060086000848152602001908152602001600020549050818114612a19576000600760008673ffffffffffffffffffffffffffffffffffffffff1673ffffffffffffffffffffffffffffffffffffffff168152602001908152602001600020600084815260200190815260200160002054905080600760008773ffffffffffffffffffffffffffffffffffffffff1673ffffffffffffffffffffffffffffffffffffffff168152602001908152602001600020600084815260200190815260200160002081905550816008600083815260200190815260200160002081905550505b6008600084815260200190815260200160002060009055600760008573ffffffffffffffffffffffffffffffffffffffff1673ffffffffffffffffffffffffffffffffffffffff16815260200190815260200160002060008381526020019081526020016000206000905550505050565b60006001600980549050612a9e91906146b0565b90506000600a6000848152602001908152602001600020549050600060098381548110612ace57612acd613953565b5b906000526020600020015490508060098381548110612af057612aef613953565b5b906000526020600020018190555081600a600083815260200190815260200160002081905550600a6000858152602001908152602001600020600090556009805480612b3f57612b3e6146e4565b5b6001900381819060005260206000200160009055905550505050565b6000612b6683610b68565b905081600760008573ffffffffffffffffffffffffffffffffffffffff1673ffffffffffffffffffffffffffffffffffffffff168152602001908152602001600020600083815260200190815260200160002081905550806008600084815260200190815260200160002081905550505050565b600080600090507a184f03e93ff9f4daa797ed6e38ed64bf6a1f0100000000000000008310612c38577a184f03e93ff9f4daa797ed6e38ed64bf6a1f0100000000000000008381612c2e57612c2d6145a9565b5b0492506040810190505b6d04ee2d6d415b85acef81000000008310612c75576d04ee2d6d415b85acef81000000008381612c6b57612c6a6145a9565b5b0492506020810190505b662386f26fc100008310612ca457662386f26fc100008381612c9a57612c996145a9565b5b0492506010810190505b6305f5e1008310612ccd576305f5e1008381612cc357612cc26145a9565b5b0492506008810190505b6127108310612cf2576127108381612ce857612ce76145a9565b5b0492506004810190505b60648310612d155760648381612d0b57612d0a6145a9565b5b0492506002810190505b600a8310612d24576001810190505b80915050919050565b60007f01ffc9a7000000000000000000000000000000000000000000000000000000007bffffffffffffffffffffffffffffffffffffffffffffffffffffffff1916827bffffffffffffffffffffffffffffffffffffffffffffffffffffffff1916149050919050565b6000604051905090565b600080fd5b600080fd5b60007fffffffff0000000000000000000000000000000000000000000000000000000082169050919050565b612de081612dab565b8114612deb57600080fd5b50565b600081359050612dfd81612dd7565b92915050565b600060208284031215612e1957612e18612da1565b5b6000612e2784828501612dee565b91505092915050565b60008115159050919050565b612e4581612e30565b82525050565b6000602082019050612e606000830184612e3c565b92915050565b600081519050919050565b600082825260208201905092915050565b60005b83811015612ea0578082015181840152602081019050612e85565b60008484015250505050565b6000601f19601f8301169050919050565b6000612ec882612e66565b612ed28185612e71565b9350612ee2818560208601612e82565b612eeb81612eac565b840191505092915050565b60006020820190508181036000830152612f108184612ebd565b905092915050565b6000819050919050565b612f2b81612f18565b8114612f3657600080fd5b50565b600081359050612f4881612f22565b92915050565b600060208284031215612f6457612f63612da1565b5b6000612f7284828501612f39565b91505092915050565b600073ffffffffffffffffffffffffffffffffffffffff82169050919050565b6000612fa682612f7b565b9050919050565b612fb681612f9b565b82525050565b6000602082019050612fd16000830184612fad565b92915050565b612fe081612f9b565b8114612feb57600080fd5b50565b600081359050612ffd81612fd7565b92915050565b6000806040838503121561301a57613019612da1565b5b600061302885828601612fee565b925050602061303985828601612f39565b9150509250929050565b61304c81612f18565b82525050565b60006020820190506130676000830184613043565b92915050565b60008060006060848603121561308657613085612da1565b5b600061309486828701612fee565b93505060206130a586828701612fee565b92505060406130b686828701612f39565b9150509250925092565b6000819050919050565b6130d3816130c0565b81146130de57600080fd5b50565b6000813590506130f0816130ca565b92915050565b60006020828403121561310c5761310b612da1565b5b600061311a848285016130e1565b91505092915050565b61312c816130c0565b82525050565b60006020820190506131476000830184613123565b92915050565b6000806040838503121561316457613163612da1565b5b6000613172858286016130e1565b925050602061318385828601612fee565b9150509250929050565b6000602082840312156131a3576131a2612da1565b5b60006131b184828501612fee565b91505092915050565b6131c381612e30565b81146131ce57600080fd5b50565b6000813590506131e0816131ba565b92915050565b600080604083850312156131fd576131fc612da1565b5b600061320b85828601612fee565b925050602061321c858286016131d1565b9150509250929050565b600080fd5b600080fd5b7f4e487b7100000000000000000000000000000000000000000000000000000000600052604160045260246000fd5b61326882612eac565b810181811067ffffffffffffffff8211171561328757613286613230565b5b80604052505050565b600061329a612d97565b90506132a6828261325f565b919050565b600067ffffffffffffffff8211156132c6576132c5613230565b5b6132cf82612eac565b9050602081019050919050565b82818337600083830152505050565b60006132fe6132f9846132ab565b613290565b90508281526020810184848401111561331a5761331961322b565b5b6133258482856132dc565b509392505050565b600082601f83011261334257613341613226565b5b81356133528482602086016132eb565b91505092915050565b6000806000806080858703121561337557613374612da1565b5b600061338387828801612fee565b945050602061339487828801612fee565b93505060406133a587828801612f39565b925050606085013567ffffffffffffffff8111156133c6576133c5612da6565b5b6133d28782880161332d565b91505092959194509250565b600067ffffffffffffffff8211156133f9576133f8613230565b5b61340282612eac565b9050602081019050919050565b600061342261341d846133de565b613290565b90508281526020810184848401111561343e5761343d61322b565b5b6134498482856132dc565b509392505050565b600082601f83011261346657613465613226565b5b813561347684826020860161340f565b91505092915050565b6000806040838503121561349657613495612da1565b5b60006134a485828601612fee565b925050602083013567ffffffffffffffff8111156134c5576134c4612da6565b5b6134d185828601613451565b9150509250929050565b600080604083850312156134f2576134f1612da1565b5b600061350085828601612fee565b925050602061351185828601612fee565b9150509250929050565b7f4e487b7100000000000000000000000000000000000000000000000000000000600052602260045260246000fd5b6000600282049050600182168061356257607f821691505b6020821081036135755761357461351b565b5b50919050565b7f4552433732313a20617070726f76616c20746f2063757272656e74206f776e6560008201527f7200000000000000000000000000000000000000000000000000000000000000602082015250565b60006135d7602183612e71565b91506135e28261357b565b604082019050919050565b60006020820190508181036000830152613606816135ca565b9050919050565b7f4552433732313a20617070726f76652063616c6c6572206973206e6f7420746f60008201527f6b656e206f776e6572206f7220617070726f76656420666f7220616c6c000000602082015250565b6000613669603d83612e71565b91506136748261360d565b604082019050919050565b600060208201905081810360008301526136988161365c565b9050919050565b7f4552433732313a2063616c6c6572206973206e6f7420746f6b656e206f776e6560008201527f72206f7220617070726f76656400000000000000000000000000000000000000602082015250565b60006136fb602d83612e71565b91506137068261369f565b604082019050919050565b6000602082019050818103600083015261372a816136ee565b9050919050565b7f455243373231456e756d657261626c653a206f776e657220696e646578206f7560008201527f74206f6620626f756e6473000000000000000000000000000000000000000000602082015250565b600061378d602b83612e71565b915061379882613731565b604082019050919050565b600060208201905081810360008301526137bc81613780565b9050919050565b7f474c424e46543a20696e76616c6964206163636f756e74206164647265737300600082015250565b60006137f9601f83612e71565b9150613804826137c3565b602082019050919050565b60006020820190508181036000830152613828816137ec565b9050919050565b7f416363657373436f6e74726f6c3a2063616e206f6e6c792072656e6f756e636560008201527f20726f6c657320666f722073656c660000000000000000000000000000000000602082015250565b600061388b602f83612e71565b91506138968261382f565b604082019050919050565b600060208201905081810360008301526138ba8161387e565b9050919050565b7f455243373231456e756d657261626c653a20676c6f62616c20696e646578206f60008201527f7574206f6620626f756e64730000000000000000000000000000000000000000602082015250565b600061391d602c83612e71565b9150613928826138c1565b604082019050919050565b6000602082019050818103600083015261394c81613910565b9050919050565b7f4e487b7100000000000000000000000000000000000000000000000000000000600052603260045260246000fd5b7f4552433732313a20696e76616c696420746f6b656e2049440000000000000000600082015250565b60006139b8601883612e71565b91506139c382613982565b602082019050919050565b600060208201905081810360008301526139e7816139ab565b9050919050565b7f4552433732313a2061646472657373207a65726f206973206e6f74206120766160008201527f6c6964206f776e65720000000000000000000000000000000000000000000000602082015250565b6000613a4a602983612e71565b9150613a55826139ee565b604082019050919050565b60006020820190508181036000830152613a7981613a3d565b9050919050565b7f474c424e46543a206d7573742068617665206d696e74657220726f6c6520746f60008201527f206d696e74000000000000000000000000000000000000000000000000000000602082015250565b6000613adc602583612e71565b9150613ae782613a80565b604082019050919050565b60006020820190508181036000830152613b0b81613acf565b9050919050565b7f4e487b7100000000000000000000000000000000000000000000000000000000600052601160045260246000fd5b6000613b4c82612f18565b91507fffffffffffffffffffffffffffffffffffffffffffffffffffffffffffffffff8203613b7e57613b7d613b12565b5b600182019050919050565b6000606082019050613b9e6000830186612fad565b613bab6020830185613043565b8181036040830152613bbd8184612ebd565b9050949350505050565b7f4f776e61626c653a206e6577206f776e657220697320746865207a65726f206160008201527f6464726573730000000000000000000000000000000000000000000000000000602082015250565b6000613c23602683612e71565b9150613c2e82613bc7565b604082019050919050565b60006020820190508181036000830152613c5281613c16565b9050919050565b7f4552433732313a207472616e736665722066726f6d20696e636f72726563742060008201527f6f776e6572000000000000000000000000000000000000000000000000000000602082015250565b6000613cb5602583612e71565b9150613cc082613c59565b604082019050919050565b60006020820190508181036000830152613ce481613ca8565b9050919050565b7f4552433732313a207472616e7366657220746f20746865207a65726f2061646460008201527f7265737300000000000000000000000000000000000000000000000000000000602082015250565b6000613d47602483612e71565b9150613d5282613ceb565b604082019050919050565b60006020820190508181036000830152613d7681613d3a565b9050919050565b7f4f776e61626c653a2063616c6c6572206973206e6f7420746865206f776e6572600082015250565b6000613db3602083612e71565b9150613dbe82613d7d565b602082019050919050565b60006020820190508181036000830152613de281613da6565b9050919050565b7f4552433732313a20617070726f766520746f2063616c6c657200000000000000600082015250565b6000613e1f601983612e71565b9150613e2a82613de9565b602082019050919050565b60006020820190508181036000830152613e4e81613e12565b9050919050565b7f4552433732313a207472616e7366657220746f206e6f6e20455243373231526560008201527f63656976657220696d706c656d656e7465720000000000000000000000000000602082015250565b6000613eb1603283612e71565b9150613ebc82613e55565b604082019050919050565b60006020820190508181036000830152613ee081613ea4565b9050919050565b600081905092915050565b6000613efd82612e66565b613f078185613ee7565b9350613f17818560208601612e82565b80840191505092915050565b6000613f2f8285613ef2565b9150613f3b8284613ef2565b91508190509392505050565b7f45524337323155524953746f726167653a2055524920736574206f66206e6f6e60008201527f6578697374656e7420746f6b656e000000000000000000000000000000000000602082015250565b6000613fa3602e83612e71565b9150613fae82613f47565b604082019050919050565b60006020820190508181036000830152613fd281613f96565b9050919050565b60008190508160005260206000209050919050565b60006020601f8301049050919050565b600082821b905092915050565b60006008830261403b7fffffffffffffffffffffffffffffffffffffffffffffffffffffffffffffffff82613ffe565b6140458683613ffe565b95508019841693508086168417925050509392505050565b6000819050919050565b600061408261407d61407884612f18565b61405d565b612f18565b9050919050565b6000819050919050565b61409c83614067565b6140b06140a882614089565b84845461400b565b825550505050565b600090565b6140c56140b8565b6140d0818484614093565b505050565b5b818110156140f4576140e96000826140bd565b6001810190506140d6565b5050565b601f8211156141395761410a81613fd9565b61411384613fee565b81016020851015614122578190505b61413661412e85613fee565b8301826140d5565b50505b505050565b600082821c905092915050565b600061415c6000198460080261413e565b1980831691505092915050565b6000614175838361414b565b9150826002028217905092915050565b61418e82612e66565b67ffffffffffffffff8111156141a7576141a6613230565b5b6141b1825461354a565b6141bc8282856140f8565b600060209050601f8311600181146141ef57600084156141dd578287015190505b6141e78582614169565b86555061424f565b601f1984166141fd86613fd9565b60005b8281101561422557848901518255600182019150602085019450602081019050614200565b86831015614242578489015161423e601f89168261414b565b8355505b6001600288020188555050505b505050505050565b7f416363657373436f6e74726f6c3a206163636f756e7420000000000000000000600082015250565b600061428d601783613ee7565b915061429882614257565b601782019050919050565b7f206973206d697373696e6720726f6c6520000000000000000000000000000000600082015250565b60006142d9601183613ee7565b91506142e4826142a3565b601182019050919050565b60006142fa82614280565b91506143068285613ef2565b9150614311826142cc565b915061431d8284613ef2565b91508190509392505050565b600081519050919050565b600082825260208201905092915050565b600061435082614329565b61435a8185614334565b935061436a818560208601612e82565b61437381612eac565b840191505092915050565b60006080820190506143936000830187612fad565b6143a06020830186612fad565b6143ad6040830185613043565b81810360608301526143bf8184614345565b905095945050505050565b6000815190506143d981612dd7565b92915050565b6000602082840312156143f5576143f4612da1565b5b6000614403848285016143ca565b91505092915050565b7f455243373231456e756d657261626c653a20636f6e736563757469766520747260008201527f616e7366657273206e6f7420737570706f727465640000000000000000000000602082015250565b6000614468603583612e71565b91506144738261440c565b604082019050919050565b600060208201905081810360008301526144978161445b565b9050919050565b60006144a982612f18565b91506144b483612f18565b92508282026144c281612f18565b915082820484148315176144d9576144d8613b12565b5b5092915050565b60006144eb82612f18565b91506144f683612f18565b925082820190508082111561450e5761450d613b12565b5b92915050565b600061451f82612f18565b91506000820361453257614531613b12565b5b600182039050919050565b7f537472696e67733a20686578206c656e67746820696e73756666696369656e74600082015250565b6000614573602083612e71565b915061457e8261453d565b602082019050919050565b600060208201905081810360008301526145a281614566565b9050919050565b7f4e487b7100000000000000000000000000000000000000000000000000000000600052601260045260246000fd5b7f4552433732313a206d696e7420746f20746865207a65726f2061646472657373600082015250565b600061460e602083612e71565b9150614619826145d8565b602082019050919050565b6000602082019050818103600083015261463d81614601565b9050919050565b7f4552433732313a20746f6b656e20616c7265616479206d696e74656400000000600082015250565b600061467a601c83612e71565b915061468582614644565b602082019050919050565b600060208201905081810360008301526146a98161466d565b9050919050565b60006146bb82612f18565b91506146c683612f18565b92508282039050818111156146de576146dd613b12565b5b92915050565b7f4e487b7100000000000000000000000000000000000000000000000000000000600052603160045260246000fdfea2646970667358221220e883b519cadbfe4ef144e711d8e8aa2e478f7293c6653b8c857d5ae72fbc459364736f6c63430008130033",
  "immutableReferences": {},
  "source": "// SPDX-License-Identifier: MIT\r\npragma solidity ^0.8.0;\r\n\r\nimport \"@openzeppelin/contracts/token/ERC721/extensions/ERC721URIStorage.sol\";\r\nimport \"@openzeppelin/contracts/token/ERC721/extensions/ERC721Enumerable.sol\";\r\nimport \"@openzeppelin/contracts/access/Ownable.sol\";\r\nimport \"@openzeppelin/contracts/access/AccessControl.sol\";\r\n\r\ncontract GLBNFT is ERC721URIStorage, ERC721Enumerable, Ownable, AccessControl {\r\n    bytes32 public constant MINTER_ROLE = keccak256(\"MINTER_ROLE\");\r\n    uint256 private _nextTokenId;\r\n\r\n    event TokenMinted(address to, uint256 tokenId, string uri);\r\n\r\n    constructor(address initialOwner) ERC721(\"GLBNFT\", \"GLB\") {\r\n        _setupRole(DEFAULT_ADMIN_ROLE, msg.sender);\r\n        _setupRole(MINTER_ROLE, msg.sender);\r\n        transferOwnership(initialOwner);\r\n    }\r\n\r\n    function supportsInterface(\r\n        bytes4 interfaceId\r\n    )\r\n        public\r\n        view\r\n        virtual\r\n        override(ERC721URIStorage, ERC721Enumerable, AccessControl)\r\n        returns (bool)\r\n    {\r\n        return super.supportsInterface(interfaceId);\r\n    }\r\n\r\n    function _beforeTokenTransfer(\r\n        address from,\r\n        address to,\r\n        uint256 tokenId,\r\n        uint256 batchSize\r\n    ) internal virtual override(ERC721, ERC721Enumerable) {\r\n        super._beforeTokenTransfer(from, to, tokenId, batchSize);\r\n    }\r\n\r\n    function safeMint(\r\n        address to,\r\n        string memory uri\r\n    ) public onlyRole(MINTER_ROLE) returns (uint256) {\r\n        require(\r\n            hasRole(MINTER_ROLE, msg.sender),\r\n            \"GLBNFT: must have minter role to mint\"\r\n        );\r\n\r\n        uint256 tokenId = _nextTokenId++;\r\n        _safeMint(to, tokenId);\r\n        _setTokenURI(tokenId, uri);\r\n        emit TokenMinted(to, tokenId, uri);\r\n        return tokenId;\r\n    }\r\n\r\n    function addMinter(address account) public onlyOwner {\r\n        require(account != address(0), \"GLBNFT: invalid account address\");\r\n\r\n        grantRole(MINTER_ROLE, account);\r\n    }\r\n\r\n    function removeMinter(address account) public onlyOwner {\r\n        require(account != address(0), \"GLBNFT: invalid account address\");\r\n\r\n        revokeRole(MINTER_ROLE, account);\r\n    }\r\n\r\n    function _burn(\r\n        uint256 tokenId\r\n    ) internal virtual override(ERC721, ERC721URIStorage) {\r\n        super._burn(tokenId);\r\n    }\r\n\r\n    function tokenURI(\r\n        uint256 tokenId\r\n    )\r\n        public\r\n        view\r\n        virtual\r\n        override(ERC721, ERC721URIStorage)\r\n        returns (string memory)\r\n    {\r\n        return super.tokenURI(tokenId);\r\n    }\r\n}\r\n",
  "sourcePath": "C:\\Users\\Yash kanjariya\\Desktop\\Projects\\three-nft\\server\\contracts\\GLBNFT.sol",
  "compiler": {
    "name": "solc",
    "version": "0.8.19+commit.7dd6d404.Emscripten.clang"
  },
  "schemaVersion": "3.4.16",
  "updatedAt": "2024-06-16T16:33:45.185Z",
  "networkType": "ethereum",
  "devdoc": {
    "events": {
      "Approval(address,address,uint256)": {
        "details": "Emitted when `owner` enables `approved` to manage the `tokenId` token."
      },
      "ApprovalForAll(address,address,bool)": {
        "details": "Emitted when `owner` enables or disables (`approved`) `operator` to manage all of its assets."
      },
      "BatchMetadataUpdate(uint256,uint256)": {
        "details": "This event emits when the metadata of a range of tokens is changed. So that the third-party platforms such as NFT market could timely update the images and related attributes of the NFTs."
      },
      "MetadataUpdate(uint256)": {
        "details": "This event emits when the metadata of a token is changed. So that the third-party platforms such as NFT market could timely update the images and related attributes of the NFT."
      },
      "RoleAdminChanged(bytes32,bytes32,bytes32)": {
        "details": "Emitted when `newAdminRole` is set as ``role``'s admin role, replacing `previousAdminRole` `DEFAULT_ADMIN_ROLE` is the starting admin for all roles, despite {RoleAdminChanged} not being emitted signaling this. _Available since v3.1._"
      },
      "RoleGranted(bytes32,address,address)": {
        "details": "Emitted when `account` is granted `role`. `sender` is the account that originated the contract call, an admin role bearer except when using {AccessControl-_setupRole}."
      },
      "RoleRevoked(bytes32,address,address)": {
        "details": "Emitted when `account` is revoked `role`. `sender` is the account that originated the contract call:   - if using `revokeRole`, it is the admin role bearer   - if using `renounceRole`, it is the role bearer (i.e. `account`)"
      },
      "Transfer(address,address,uint256)": {
        "details": "Emitted when `tokenId` token is transferred from `from` to `to`."
      }
    },
    "kind": "dev",
    "methods": {
      "approve(address,uint256)": {
        "details": "See {IERC721-approve}."
      },
      "balanceOf(address)": {
        "details": "See {IERC721-balanceOf}."
      },
      "getApproved(uint256)": {
        "details": "See {IERC721-getApproved}."
      },
      "getRoleAdmin(bytes32)": {
        "details": "Returns the admin role that controls `role`. See {grantRole} and {revokeRole}. To change a role's admin, use {_setRoleAdmin}."
      },
      "grantRole(bytes32,address)": {
        "details": "Grants `role` to `account`. If `account` had not been already granted `role`, emits a {RoleGranted} event. Requirements: - the caller must have ``role``'s admin role. May emit a {RoleGranted} event."
      },
      "hasRole(bytes32,address)": {
        "details": "Returns `true` if `account` has been granted `role`."
      },
      "isApprovedForAll(address,address)": {
        "details": "See {IERC721-isApprovedForAll}."
      },
      "name()": {
        "details": "See {IERC721Metadata-name}."
      },
      "owner()": {
        "details": "Returns the address of the current owner."
      },
      "ownerOf(uint256)": {
        "details": "See {IERC721-ownerOf}."
      },
      "renounceOwnership()": {
        "details": "Leaves the contract without owner. It will not be possible to call `onlyOwner` functions. Can only be called by the current owner. NOTE: Renouncing ownership will leave the contract without an owner, thereby disabling any functionality that is only available to the owner."
      },
      "renounceRole(bytes32,address)": {
        "details": "Revokes `role` from the calling account. Roles are often managed via {grantRole} and {revokeRole}: this function's purpose is to provide a mechanism for accounts to lose their privileges if they are compromised (such as when a trusted device is misplaced). If the calling account had been revoked `role`, emits a {RoleRevoked} event. Requirements: - the caller must be `account`. May emit a {RoleRevoked} event."
      },
      "revokeRole(bytes32,address)": {
        "details": "Revokes `role` from `account`. If `account` had been granted `role`, emits a {RoleRevoked} event. Requirements: - the caller must have ``role``'s admin role. May emit a {RoleRevoked} event."
      },
      "safeTransferFrom(address,address,uint256)": {
        "details": "See {IERC721-safeTransferFrom}."
      },
      "safeTransferFrom(address,address,uint256,bytes)": {
        "details": "See {IERC721-safeTransferFrom}."
      },
      "setApprovalForAll(address,bool)": {
        "details": "See {IERC721-setApprovalForAll}."
      },
      "symbol()": {
        "details": "See {IERC721Metadata-symbol}."
      },
      "tokenByIndex(uint256)": {
        "details": "See {IERC721Enumerable-tokenByIndex}."
      },
      "tokenOfOwnerByIndex(address,uint256)": {
        "details": "See {IERC721Enumerable-tokenOfOwnerByIndex}."
      },
      "totalSupply()": {
        "details": "See {IERC721Enumerable-totalSupply}."
      },
      "transferFrom(address,address,uint256)": {
        "details": "See {IERC721-transferFrom}."
      },
      "transferOwnership(address)": {
        "details": "Transfers ownership of the contract to a new account (`newOwner`). Can only be called by the current owner."
      }
    },
    "version": 1
  },
  "userdoc": {
    "kind": "user",
    "methods": {},
    "version": 1
  }
}